:020000040800F2
:2030000000180020C130000885520008855200088552000885520008855200080000000024
:2030200000000000000000000000000085520008855200080000000085520008AD470008F7
:203040008552000885520008855200088552000885520008855200088552000845480008C2
:20306000855200088552000885520008855200088552000885520008000000008552000837
:203080000000000085520008000000000000000085520008000000008552000885520008B4
:2030A0008552000885520008855200087D4200088552000885520008855200089D47000823
:2030C000002110B5044B054A934201D202C3FBE701F02AFC10BDC046000000203C080020AF
:2030E00013B501248C408A404B1C01930368A3431A43026013BD0000F0B51F4C020089B027
:203100000E0020000021FFF7EBFF022209250292236893432360013DEDB20623002D18D09B
:203120002027049323683200BB4323607F239A430192019A0721531E9A410F48FFF7D0FF36
:203140000623039323687600BB431F432760F6B2E1E720220793236893431E3A23600692A8
:20316000236893431343013A2360059223689343236009B0F0BDC0461400004810B50100D1
:203180000020FFF7B9FF10BD10B501000120FFF7B3FF10BD0022014B1A6070473402002043
:2031A000014B18607047C04630020020014B18607047C04610000020014B18607047C0460A
:2031C00028000020F8B51F4D2B68002B39D01E4BA7201B68002B00D1A620FFF7CFFF1B4B28
:2031E0001B68B42B04D0C020FFF7C8FFA02003E0C820FFF7C3FFA120FFF7C0FF8120FFF7AC
:20320000BDFFFF20124B64211B680024584302F0CBFFC0B2FFF7B2FF50200026404220435F
:20322000C0B2FFF7ABFF0B4FE301FF18B85D0136FFF7AAFF802EF9D10134042CECD100237F
:203240002B60F8BD1400002030020020100000202800002030000020F0B500268DB00D00CB
:20326000B04200D0E2E050277F4238003043C0B2FFF784FF80240020013CFFF785FF002C55
:20328000F9D10136042EF0D12B786A781B0213430293AB78EA781B0213430593644B0194D9
:2032A0001B6803940693029BDB0807932300013B00935F4B069A1868059B9B18834200D895
:2032C000B2E0069B0599C01A029B0024584302F06BFF079BC708DB1B08930723FF221840E6
:2032E00001331B1A1A41089B524EDB01F61807230B92029A1340099309331B1A0A9350200D
:2033000040422043C0B2FFF739FF0B9B0493A74201D0FF2304933500803D089B002219198F
:20332000022903D86B1CFF331A7812042B0080331B781B021A430023994200D02B78134374
:2033400018000A9AD040049A1040009AA24204D1039AD340019A13401843C0B20135FFF7C9
:2033600013FFB542D9D1803501342E00A742C6D22F4B029A1868069B0599C01A20239B1A5A
:20338000584302F011FF0325C4082B1B072700930823FF220740DB1B9A40079B0892E418FA
:2033A000244BE4011C19009B9D4282D3502040422843C0B2FFF7E2FE079B009A9B1A0B9381
:2033C000089B0193954201D0FF2301932600099A7B1C9B180393803E0B9B0022E9180229FD
:2033E00003D8731CFF331A781204330080331B781B021A430023994200D0337813431800AF
:20340000039AD040019A1040002D04D10A9AD340049A13401843C0B20136FFF7B5FEA642D5
:20342000DAD1013D803CBEE7FFF7CCFE0DB0F0BD3808002030000020F0B53D4C8BB002926B
:2034400022683C4C039225683B4C3C4B226801241B68059104933A4B3A4E19683A4B346024
:203460001B68049E0793394B394F1B6808920193384B06941B68029A002A4AD08446059AE7
:20348000127809926246141A002911DB002E0FDB099AE2401400069A1440089AA400A458F5
:2034A000002C02D0FC5C2C4301E0FC5CAC43FC54039A0133013693421ADB0722019B013106
:2034C000013B0193CB1713405B18DB109340049A214C9B18079A0C409A180392002C04DABA
:2034E0000822013C524214430134069D049EA540019A002A0DD0029A121A02926246072A44
:2035000003D8029A8444002ABCD1059A01320592B1E70B4A11600D4A019911600D4A1360C2
:20352000034B039A1A60034B1D600BB0F0BDC046180000201C000020240000200400002011
:2035400008000020140000202C0000200C00002030000020200000200700008070B57F28B4
:2035600033DC1F2931DC8418802C01D98022121ACC18202C01D920235B1A0724CD172C40BA
:203580006418E410114DE4012418286010480160104802601048A2180360104B1C60104B9A
:2035A0001A60104B194004D5082301395B421943013101238B400C4A07991360059A0B4B27
:2035C00006981A60089AFFF737FF70BD04000020080000202C0000200C00002020000020D4
:2035E00018000020070000801C00002024000020F0B585B00290C81880283ED800293CDB42
:203600000A981018202838D8002A36DB07240127A4460A9D3E005D4300956546BC46D01069
:20362000C00114404018A6401C180194144C03952760144C009D002D1FD0029D275C002D87
:2036400001D0374300E0B743019D2754013085420DD86746039E01321640B7403E000A98A1
:2036600001380A90D010C00140181D180195009D013D00950A9D002DDCD105B0F0BDC0465A
:203680001400002030000020F7B50005040D00200A2C1FD8104DA400655985421AD0D3183C
:2036A000AE780193019B9A4214D01478AF880132BC420FD3EB889C420CD8E41BAB68A40033
:2036C000E45C002902D007198F4203DCA419001980B2E7E7FEBDC046C4770008F0B500055B
:2036E0008FB00693030D149D0C920D91079300200A2B5CD89A002F4BD358834257D01599F9
:20370000069A8C4662440992169A1E78AA180892189A9B7894460A93179B069C63440B937F
:20372000179B0B9A93423ED0079A179B9100214A1B788A5891888B4202D3D088834209D9D1
:20374000093B012B2FD8AD19089A73199A422AD3069C24E05B1A91689B00CB185988D26878
:203760001F7852180999E319994205D2AD1908997319994217D3069C3B00734304930123F2
:2037800002930CAB01930223039200933A00330020002900FFF7E2FE0A9BDF19E419179B24
:2037A00001331793BCE72D042800A4B220430FB0F0BDC046C4770008F0B58FB00392012225
:2037C000089314AB1B78089C0993159B121B0A92E21A0492002202900E000592934205D0AE
:2037E000049B049ADB179B1ADB0F059301250027049B013B0693F31A0B93049BEB1A0793B9
:20380000039B013B0C93BC4200DA10E1099B2B421AD0059B002B10D0039B3100FA18069B3E
:203820000095E31A16980D92FFF7E2FE069BA119C91A0095049B0D9A03E0230031000C9ADD
:2038400000950298FFF7D4FE0222099B13421BD0039BE218059B002B0FD0089BA34205D0CA
:203860000095079B31001698FFF7C2FE039B0095E218079BF118049B03E03B003100013A7B
:2038800000950298FFF7B4FE099B5B071CD5331B0D93059B002B10D0039B311BFA18069B24
:2038A0000095E31A16980D92FFF7A2FE069A331B991A0095049B0D9A03E023000C9A0095D6
:2038C000311B0298FFF794FE099B1B071AD5039BE218059B002B0ED0089BA34205D0F11B1B
:2038E0000095079B1698FFF783FE039B0095E2180B99049B03E03B00013AF11B0095029868
:20390000FFF776FE099BDB061BD5039BDB1B0D93059B002B0ED0069B0D9AE31A31000095E0
:203920001698FFF765FE069BA119C91A0095049B0D9A03E0230031000D9A00950298FFF764
:2039400057FE099B9B061AD5039B1A1B059B002B0FD0089BA34205D00095079B31001698EE
:20396000FFF746FE039B00951A1B079BF118049B02E03B00310000950298FFF739FE099B0D
:203980005B061BD5039BDB1B0D93059B002B0ED0069B0D9AE31A311B00951698FFF728FE09
:2039A000069A331B991A0095049B0D9A03E023000D9A0095311B0298FFF71AFE6B4624225E
:2039C0009B181B785BB2002B19DA039B1A1B059B002B0ED0089BA34205D0F11B0095079B5A
:2039E0001698FFF705FE039B00951A1B0B99049B02E03B00F11B00950298FFF7F9FD0A9B8C
:203A000008940137002B01DC7B0002E0013C3B1B5B000A9A0133D3180A930B9B013B0B939F
:203A2000079B013307930C9B01330C93EBE60FB0F0BD0000F0B593B0089280220C93037821
:203A40000400934307910B9300293ED0089B002B3DD00B9B052B00D1CDE1078BB94A3B051A
:203A60009B0C9B5820225D781B780D936B46C6889B180C9A1B78380000920A003100FFF77C
:203A800003FEBB0B311A9A030991012B09D080231B029A4203D176084008331A00E0002352
:203AA0000993C0239B011F4080235B019F4209D080239B019F4210D123896A085B08013B15
:203AC0009B1A0BE023895B1B08E0079B00E0089B0D931D000A93099301E000230A930B9BDA
:203AE000581E062800D923E202F054FB07002E010700740185010B022E01E3882089E27A1F
:203B000059084508A94200D20D00954200D91500227B6E0094460421625E0227E15F674688
:203B20009B1B49190090012F52D06069FFF760FD0423E25E0223E15E238952199B1B009344
:203B400060692B00FFF754FD0423E25E0223E15EE3885219C918238901399B1B0093491B15
:203B600060692B00FFF744FD0421625E0220215EA07AE38800909B1B20694919FFF738FDB3
:203B80000422A15E2289E3888A180220215EA07A9B1B009049192069013AFFF729FD0421E0
:203BA000625E0220215E2089A37A801B009052192069FFF71DFD0221605E0421625EE18880
:203BC000A37A411820895219861B013900961AE02069FFF70DFD0423E25E0223E15E2389F0
:203BE00052199B1B009320692B00FFF701FD0423E25E0223E15EE3885219C9182389491BD7
:203C00009E1B2B0000962069FFF7F2FC012D52D9237B0026012B03D0A37A9D4200D9EE1AC4
:203C20000423E25E0223E15E636901960293C023009352192B0049192069FFF7BDFD0423F3
:203C4000E25E0223E15EE3885219C918A37A491BC91A6369019602933023009320692B0013
:203C6000FFF7AAFD0423E25E2389D218A37A521BD21A0223E15E6369019602930C23009316
:203C800049192B002069FFF797FD0423E25E2389A07AD2180223E15EE388521BC918636984
:203CA000491B0293032301960093121A091A2B002069FFF781FD079B002B37D0089B002BA2
:203CC00034D0217B208B63692269012901D1190001E011001A000225635F099D0A9E5B1976
:203CE0000B930423E55EAD190D95E688099DA77A761B0225002F00D07D000A9B761B258907
:203D0000ED1A02239C46002F01D07B009C460C9B01960593089B0493079B03936346ED1A40
:203D20000D9B029500930B9BFFF7D8FCA37E002B00D1FDE00221625E09920422A15E0A9109
:203D400062E0C046C4770008237B012B13D10B9E0223E15E0423E25E60690023072E00D1C4
:203D60002B000B9FD21A0D9EE388072F00D026890096FFF73DFC079B002B00D1D8E0089BF9
:203D8000002B00D1D4E00226A35F099E208B9B199C460423E75E0B9B216962690A9E072B20
:203DA00000D16E42F519099BE6880027F61A0B9B2489072B00D00A9F0C9BE41B0593089B4C
:203DC00002940493079B0196039300956346FFF785FCADE001232373E37A002B00D08CE621
:203DE0000421625E0220215E2089E38800902069FFF7FEFB9CE00222A35E09930423E25E7D
:203E00000A92A37E002B4AD02278052A0AD10C9A002A07D0474A1068002803D0464A126847
:203E2000002A02D1454A464812689A4200D87FE0089A002A0DD014225A43821895680422A2
:203E4000AA40089DAA4273D1AE0802D0079A002A08D1142201265A4382189568D268AE40BE
:203E60000792B6B214255D4345196B68208959084008401A0A992A684118E08854084008F1
:203E8000001B099CAF6800191C0054437C4304942C6902970394079C0096019417E0079BFC
:203EA0001878022816D92389E2881C0054434443049404248440079901340C1903940EAC3A
:203EC00001940124844002900A9909980094FFF745FB2DE00122824007999300033BCB187E
:203EE000013AE0D31E785D7836022E439D7836042902DD7897000D432E430EAD7E51043BD0
:203F0000EEE7E37A0222A15E267B0425625F2069C918D2180025012E03D0A67AB34200D958
:203F20009D1B646901950294FF240094FFF744FC13B0F0BD380200203C020020847C0008B3
:203F400024780008F0B5C36A99B004000B92002B02D08B4200D96AE1E2880C92002A00D110
:203F600065E1A27E002A00D161E1A26A120F042A00D15CE1002B08D17F22A07AA36202402F
:203F8000642042435118E1626362E769002F00D14DE1238C0993002B00D148E1802223787C
:203FA00093430693072B02D0022B00D03FE1E31CDB7F268B079300939E4A012300213000DD
:203FC000FFF762FB24226B469B181D78079B179000933A002B0000213000FFF755FB0C9AD1
:203FE0001090904200D822E1934A33059B0C9B58099A5B780893636A934201D90023636250
:20400000636A079A0D93FB180E930D9B0092EB1ADBB20E9A00213000FFF736FB079B1390AD
:2040200000930E9A012300213000FFF72DFB089A11902089C023851A80229B013340520140
:20404000934209D0802200259201934204D1089B4508013D5B08ED1AA36A109A1B011B091F
:204060000F939B1A1293129A139B944663440A932369626914930221635E0A995B1A15932A
:204080000423E75E069B2900072B01D1089B5942CB19119F1693BC460C9B634419000A9B5D
:2040A000C91800239C46069B072B00D0AC46179F079B01370C9705930D9F099B0191DB1BE2
:2040C00004930E9B149903936346C01A169B029000933000159BFFF701FB0223E15E069E2A
:2040E0000C9B6069C91A0423E25E2B00072E01D1089B5B42069F9A1800262389072F00D065
:204100002E009B1B00930C9BFFF772FA0223E15E069EE3886069C9180423E25E2B00072E3B
:2041200001D1089B5B42069F9A1800262389072F00D02E009B1B00930C9BFFF759FAFFF7E1
:2041400041F8FA21A57E0B9F89006F43380002F02BF80B9B5E006E431D00002808D1FA21C8
:204160000B9B30008900ED18F61902F01DF8F4E78021A36A49051A0F12078A4221D002D815
:20418000002A09D053E0802189058A4226D0C0239B059A423CD04AE0E26A5519E562119AB7
:2041A0000A9DAA420BD8626AE58801326262129A5242AA4203D80F9B1943A16237E0C31857
:2041C00034E07F23A27A134064225343E26AD318E36280230F9A9B05134327E0E26A55191F
:2041E000E562119A0A9DAA420CD8109A139DAA4205D8C0239B05A3620023636217E0626A00
:20420000013A62621B011A09131A1943A1620EE07F236422A17A0B405343E26A49B2D31890
:20422000E3620023002901DA8023DB05A36219B0F0BDC046B0640008C477000830B50124A5
:204240000109A1400B4D0C4B495B0F2528400138014108001B68FF211A68A040A2431A609D
:204260001A694900A2400A404243DA601A6814431C6030BDE27C000854040020F7B5C023D8
:2042800080210127144A5B000905D150134B144D1C687F422022E36913421BD02C232762C3
:2042A0002A68FF339A4210D80E4E0F493268A38CDBB28B54962130684900013001F0FAFFDA
:2042C00031602B6801332B60E4E76A46A38CDBB2D371DFE7F7BDC04600E100E054040020C7
:2042E000A40300204002002074020020014B186880B27047A4030020F7B515000400431863
:20430000114E124F0193019B9C421CD03368002B05D16B1CFAD0013D002DF7D113E0002DA3
:2043200011D072B63368013B336062B696213B68074A4900D35C237038680134013001F045
:20434000B9FF3960DFE7F7BDA4030020700200207402002070B50126050076423200032144
:20436000FFF7CAFF6C78A878240204433200E81C21000334FFF7C0FFA0B270BDF7B505009A
:204380000C1E1ED01B2000F0CBFF6A462800202680250C4B0C491B68D71D013CA4B28C42C9
:2043A0000CD0DA692A42FCD002781A85DA693242FCD09A8C0130D2B23A70EEE71B2000F085
:2043C000A5FFF7BD54040020FFFF000010B5FFF7D5FF10BDF0B5002402279026904B914D52
:2043E00087B01C70904B2100282203902800F6051F8002F017F81120FFF720FF72698B4B67
:2044000064201340736100F045FF80227369D200134380227361520239002800FFF76CFF8B
:204420000422814B6E781F802B7893437C4A01923B2B00D0D6E005AB1C705C7002940F2773
:2044400035003B00BD434FD010231E4211D00122754D744F2888524238180121FFF74CFFBA
:20446000012C03D82B88FA5C05AB1A552B8801332B80B3060BD501226B4D6A482B8852420D
:20448000C0180121FFF738FF2B8801332B8073060BD50122644D63482B885242C01801214A
:2044A000FFF72AFF2B8801332B8073B20026B342C5DA01225C4D5B4E288852423018012149
:2044C000FFF71AFF2B880134F65C01332B80029BE4B2002B05D10F3333405A1E9341DBB2F2
:2044E00000E001230293AAE7019A0E3B4D4C1370617839400CD001224B4E89B23088524221
:204500002018FFF7F9FE63781F403388FF1837800223434E3370029B002B06D1032305ACE4
:2045200033706378002B12D116E001223E4F5242388801212018FFF7DFFE00223B880133AF
:204540009BB23B809342E9D90132D2B2FAE7802B5FD00423337060E02278112A01D0002A70
:2045600003D1039B0125002B57D0039B304D1B095B00595B0F23039818400138014110094A
:204580004000405B1340013B1841814202DD6B461B7B2370022000F07DFEFF23112225488D
:2045A00052420370EF3B43702378042183705340C370FFF7E3FE0523019A1F4D13700122F2
:2045C000022152422800FFF797FE2B78FF2B09D1EE3B23706B78002B06D0102B0ED00623E8
:2045E000019A1370002518E00723019AA81C1370012201215242FFF77FFE0AE00823019A78
:20460000A81C1370012202215242FFF775FEAB7823702078FFF712FE0125280007B0F0BD0A
:204620006C02002044020020AC030020FFFBFFFFE27C0008A8030020A0030020F0B5474D92
:2046400087B0002870D080239027002401265B00FF050193FE3B029301A9013338000493A8
:204660000596039400F066FE80239B000193FF3BFF3B01A938000293039600F05BFE802372
:20468000DB000193022301A93800029603930494059400F04FFE7B69314A210013407B6159
:2046A0008023AA69DB011A43AA61AA692D4D1340009348222800009B01F0B4FE2A4B2B49D4
:2046C0001A682B60B2431A60294A20201A60FC2292015A60802212019A6002221A618022D6
:2046E00052015C61DA60012252421A625A680A400A215A609A688A439A6099680143996045
:204700001A6802431A60053800F000FE194B2A681C60194B98201C60184B1C6013681E4368
:204720001660FFF757FE16E09024E40563690C4A1B201340636100F0F3FDAB690B4A200048
:204740001340AB61E023DB000193032301A9029300F0F0FD012007B0F0BDC0460010024069
:20476000FFFBFFFF5404002000380140FFBFFFFF0C9400007002002040020020A403002039
:2047800072B6BFF34F8F034A034BDA60BFF34F8FFEE7C0460400FA0500ED00E010B5024832
:2047A00001F010FA10BDC0469C0400201D4A1368083313601C4B1B68002B12D01B4B1A68FC
:2047C00008321A601A4A19681268914209D372B68020184900010A6802430A6062B6002292
:2047E0001A60154B5A68002A12D01A6808321A601A6908321A611A69632A09D972B68020E9
:204800000C49C0020A6802430A6062B600221A610A4B1B68002B03D0094A13680833136059
:204820007047C046380800203408002028080020F0060020B00300203C040020B40300208F
:20484000F406002010B572B680211B4C63690B4211D06161194800F015FE194B002806D1C6
:204860001860197D5A680A435A60186103E0197D5A688A435A608021636909020B4213D07E
:2048800090200D4BC005596100F0FCFD0C4B002806D11860597D5A680A435A60186103E0DF
:2048A000597D5A688A435A608021064AC90213680B43136062B610BD00040140000400486B
:2048C0003C040020B003002010B5094CB42806D10020FEF76BFC01232375DB1805E0B420F4
:2048E000FEF764FC02232375013B637510BDC0463C040020002270B50D000400074B0100B4
:204900001A60074B01321A600648023201F03EFD29002000FFF75AFD70BDC046F40600208D
:20492000B4030020DC050020F0B5CC4BCC4A93B01A60CC4ACC4B01901A609020C023002421
:204940000227CA4D5B010DA9C0050D93AC600E946C600F972C60109400F0ECFC220039001D
:20496000072000F0A3FC220021001B2000F09EFC8023BF4E9B02726990201A437261726996
:204980000DA913400893089B80231B020D93B94BC0050E9301230F9300F0CCFC802372690A
:2049A000DB021A43726172690DA913400993099B8023B1480D9300F0BDFC072000F0A6FC28
:2049C00062B6AE4B20001C60AD4B1C60FEF7E2FB2000FEF7E5FB1420FEF7EEFB2000FFF7C7
:2049E00073FFFA20A74B40002C601C60AC606C602C6100F04FFCA44B01201C70FFF71EFEA3
:204A000030222100A14801F00DFDA14B1B88052B07D0BFF34F8F9F4A9F4BDA60BFF34F8F7C
:204A2000FEE7380000F036FC01239C4D019A2B700A236C70AB709A4B280093429B415B4275
:204A40005B00EB7004222123964909302C716C71AF71EB712A7201F05BFC0D212800FFF7F8
:204A600049FF0122904B1A60904B0B945C60904B904AC0331C60904BD31A01931B0E039301
:204A8000019B1B14DBB20493019B1B12DBB205938A4B082219687D48FFF754FA824B1F685C
:204AA000012F00D1FDE1022FF2D1FFF71FFC06ABD8809D1DDB88022B17D99621774C49000C
:204AC0002000FFF747FC28806378A2781B0213430A932378662B08D1593B2370002303215D
:204AE00020006370A370FFF705FF754C2368002BCED000230C932368802325685B031D4069
:204B000039D01223654D694C2B70236803211B0ADBB26B7023682800DBB2AB70FFF7EAFEE0
:204B20006368002B12D123680421043B23606B461B7B28002B706B461B7C6B706B461B7DB4
:204B4000AB706B461B79EB70FFF740FC2368002B06D06068584B2168C01889B2FFF736FCAD
:204B600022686368D3186360802301225B030C934D4B1A608FE1802322689B011A4016D0E4
:204B80000C9301260F2345480421037045708670C670FFF7AFFE72B64A4B1D605D602268F3
:204BA000494B1340236062B63F4B1E6073E18021236809020B4009D00C910F2301240421A3
:204BC0003648037042708470C1700EE08021226849020A400ED00F2230480C9101240270A4
:204BE0004370082304218470C370FFF783FE2E4B1C6050E12027236810263B406AD00B2303
:204C0000264D2E706A70AB70EA7008220A3B2B716A7172B62D49A81D0D31FF3101F078FB19
:204C2000012123682800BB432360264B1A688A431A601A68002A02D12268B2432260012142
:204C40005A688A435A605B68002B04D11C4A204B11680B40136062B60E216AE0B8030020D4
:204C6000006CDC0200300008000000203C0400200010024000003110000400482808002003
:204C800034080020B403002024080020C0060020AC0300200400FA0500ED00E0F8060020F2
:204CA000B70B0000027D0008E00500202C080020FC050020B07F0008000000083808002092
:204CC000B0030020E4050020CFFFFDFF9C040020FFFFFDFF2268324036D0C64A11680029C0
:204CE00030D01100012005009D400C68DEB22C4225D010240021C048047041700331817092
:204D000080213143C1700221017172B61A314B43BA49CB181B6CDBB243711368AB4313602D
:204D20001368002B03D1B64A1368A343136062B60621FFF7DFFD0122B24B1A60A8E60133B8
:204D4000042BD0D1102361E0802321689B020B405ED0A84B5968002956D0140001210F0085
:204D6000A7405868E2B238424BD0A44BA64E1B68E0001D009B1996265035298876000918C3
:204D8000C95A8905890DB14205D829884018C55AAD05AD0D01E096256D001023964EE9B2AD
:204DA0003370EB1C1B0ADBB27370CB1CDBB2B3700423F2703000337171710621FFF79AFD2A
:204DC0001C235C438D482B0004199C3422883100006800F0E5FEA9B23000FFF7F7FA01225D
:204DE000884B1A6072B6834B5A68BA435A605B68002B04D1824A854B11680B40136062B649
:204E000046E60134042CAAD180239B020C9342E080222168D2017B4D11420DD00C920F22C0
:204E20007548012402704370022304218470C370FFF760FD2C602EE023685B0318D572B60F
:204E4000734B6D485B686E4A5B00DBB2C3701168704B0B40136062B605230124037000235C
:204E6000042143708470FFF745FD664B1C600FE6634B1A6880231B011A4200D108E60C9363
:204E80000E235D4803210370002343708370FFF731FD01232B6072B6594A0C9913688B4350
:204EA000ACE7FFF723FA06ABD8809D1DDB88022B00D8EDE59621504C49002000FFF74AFA59
:204EC000288000256378A2781B0213430A93524B26001D602378DBB24F2B00D1D8E00ED8AF
:204EE000462B22D006D8322B00D177E13E2B00D196E1CDE54B2B18D04E2B18D0C8E5652B8C
:204F00002BD006D8502B00D12DE1602B00D191E0BEE5662B00D198E1682B00D0B8E5E078BB
:204F2000211DC0B2FEF798F98FE1FFF729FC0A9B022B00D0ACE572B6E37822791B021343EC
:204F4000364A136013685A1E9341354A1360354B2B4A1D601168344B4FE70A9B1B2B00D842
:204F600096E50A9B029A9A4213D11C220A9B934200D80A9AF11C2D4801F0A2F9002808D172
:204F800031000A9A1F311C3A294801F099F9002828D072B6254C30220021200001F042FA29
:204FA00062B6154D224E29000A9A1F311C3A300001F0AEF91C220A9BE6611C3B23840A9BFF
:204FC00026002900934200D80A9A0331300001F09FF90A9BE1690293F31CDB7F228C300079
:204FE000FEF728FD0D2304480321037000234370837030E1E4050020F80600209C040020C3
:20500000B0030020E005002006040000FFFFFDFF3C040020FFFFFBFFF4060020F00600202C
:205020003408002028080020FFF7FFFFC0060020BC0300200A9B022B00D029E5E378227965
:205040001B02134300D023E5FEF7BCF80023012480250A930A9B1F2B14D821000A9B0B9A8C
:2050600099400A420AD00A997D48294301F04EF821000A9A0B9B91408B430B930A9B0133A5
:205080000A93E7E70222774B1A600022764B54E6E0780138032800D9FAE4714D01F070F89E
:2050A00002101C282A000023B43213602A002800C032136000F084FF280000F0AFFFE7E439
:2050C0002C00C0342368002B00D1E1E4280000F0ACFF00232360DBE42B00C0331B68002B70
:2050E00000D1D5E421792800C9B200F0EBFFCFE4C0352B68002B00D1CAE400235B4A0A93C5
:2051000011790A9B994200D8C2E403210A9B4B430633D35C002B08D10A9B51484B43053340
:20512000D15CC9B200F0A6FF1AE003210A9B4B430633D35CFF22013BDBB28B4201D84C4A53
:20514000D25C032103240A9B48484B430533C15C0A9BC9B263430733C35C414800F070FFB7
:205160000A9B0133CAE73E480300C0331B68002B00D18DE42379DBB2302B25D015D8102B98
:2051800022D0202B00D083E4E1786379C9B2DBB2A21D334800F09EFF7F23E1780B9A19409E
:2051A0007E3B8B4013430B9372E4402B07D0802B00D06DE4E178C9B200F074FF68E4E17837
:2051C000C9B200F05FFF63E44022E1786379C9B2934200D8627900F09FFF59E46379254811
:2051E000002B00D0456021494268234ECD78234B0C7992192D029A1A2C43A24203D24268F2
:20520000B6189B1B03E0CB780A791B021343194A136072B680211A4A490313680B43EDE504
:20522000E0783840FDF7BCFF2079C0B2FDF7C4FF0623E078184002D0042802D1B420FFF7B9
:2052400043FBFDF7BFFFFFF723FC0D230321200023706570A570FFF74DFBFFF719FCC04609
:20526000FC050020E0050020B4030020F8060020067D00082C08002000000008F87F0008AD
:20528000B0030020FEE70000014B18687047C0463808002013B50190FFF7F6FF0400FFF72F
:2052A000F3FF019B001B9842F9D313BD70B58901002814DA0F23C0B20340083B114A9B08E2
:2052C00003249B009B18FF222040A04014000A4084408240DD69A5432A43DA6111E08208C3
:2052E000094B03259200D218FF232840A8401D00C02485400B408340A4001659AE433343F6
:20530000135170BD00ED00E000E100E01F2318401E3B8340014A13607047C04600E100E07C
:205320001F2318401E3B8340014AD3677047C04604E100E0F0B50B6887B003930023029115
:20534000039ADA4000D190E001229A40039C1440019400D187E0029A1021526816008E432A
:20536000022E0ED107251D40AD000139A940DC08A4000419276A8F4302990969A9400F4375
:20538000276203245F00BC400321E4431140B9400568013E25400D430560012E10D80299F5
:2053A0008568CE682540BE40354301269E40012185604568B54316090E409E4035434560D6
:2053C000C56802992C408D688021BD4049052C43C4600A4247D00121254C0327A5691F4098
:2053E0000D43A5610F25A469BF000C400594059C20499C08A4006418BD409021A668C9051A
:20540000AE430025884208D01B490135884204D01A490435884200D1033DBD400199354316
:205420000E00A560164CCD4327683E43D10301D43E002E4026606768019E3E43910301D4A4
:205440003E002E406660A768019E3E43D10201D43E002E40A660E668019F3743920201D480
:205460002E403700E76001336AE707B0F0BDC0460010024000000140000400480008004822
:205480000004014000690840411E8841C0B27047F8B504000120002C3ED02500FF35AB7A3B
:2054A000DBB2002B03D16B72200000F027FD2700032326002837AB727022002138009836A7
:2054C00000F0B0FF70220021300000F0ABFF00233800190001276268934205D00370477076
:2054E000C17001331C30F7E700231900934204D03370F17001331C36F8E700200121236802
:2055000005349A1C9E1D5033D187D087F0871880024BD387E077A972F8BDC0460084FFFF4A
:205520008022036812025833198800200A431A8070470200FF32517A03000220012909D03A
:205540001B6819180138C88700200633D8870323CB87507270470100FF314A7A030002204C
:20556000012A07D000201A68583213885B045B0C138048727047020010B5FF32547A0223AD
:20558000012C0CD0013B5372002904D1036880314C33198001E00530C17700235372180081
:2055A00010BD0000F0B5050048B21C24002804DA7F260E407443283401E04C4398342C19AD
:2055C0007F26E3702B003140C00F60702170E260FF33597A0220012900D190E00121597246
:2055E000E0782B68032819D82178454E8900591800F0C6FD020E070A0888064080208000B4
:205600000AE00888064008E008880640C02002E0088806408020C00006430E802178394E1D
:205620008F00DF19388830408446664636480143314389B239801F00617884460E005037BC
:205640002178A088002E1DD03A88C900591889188022D20089180122904308802278920012
:205660009A181188490605D51188264E0E4027490E431680227892009B181988244A0A40CC
:20568000202134E03E88C9008919224E591889190126B043088020783988C00040181E4987
:2056A000591840183E2A08D95109D20601D1013989B21A4A8902114304E05108324200D09B
:2056C000013189020180227892009A181188490405D511880B4801401148014311802278F9
:2056E00092009B1819880F4A0A40C02189014A406146002011438AB2FF351A806872F0BD80
:205700008F89FFFF0F0F00008080FFFFC0800000BF8FFFFF04040000060400000080FFFF3B
:2057200080C000008FBFFFFF020048B270B51C23002804DA7F240C406343283301E04B4318
:2057400098337F24D318214019701100C00F5870FF314C7A0220012C2FD0013848721568AA
:205760001A785C7892001548AA18002C11D01488640605D51688124C3440124E344314804A
:205780001C78114AA4002C1923881A40030013430FE01488640405D51688094C34400B4E46
:2057A000344314801C780A4AA4002C1923881340034300209BB22380487270BD8080FFFFD4
:2057C0000F0F0000C0800000BF8FFFFF80C000008FBFFFFFF0B505007F201C2401404C433A
:2057E0002C192000A83002602200AC32136000232E0083600F38037001380170FF36777AD9
:205800000220012F44D001387072A43410682468A04203D9001B1060200000E013601C2330
:205820004B43EB181A00A23212782C68002A1DD122009833503217881A78164BD200D219F5
:20584000E318D2183E2809D943099BB2C00601D1013B9BB210489B02034306E043089BB2A8
:20586000C00701D501339BB29B0213801C2041436D1898352B7800209B00E4182288074B72
:205880001340C02292015340054A134323807072F0BDC046060400000080FFFF8FBFFFFFFC
:2058A000808000007F231940633B5943411828310B7802689B00D3181988044A0A40302104
:2058C0004A4003490A431A807047C046BF8FFFFF8080000030B50400FF34637A02000220E5
:2058E000012B37D0012348B263721B33002804DA7F250D406B43283301E04B4398330125D4
:20590000D3189D707E352940C50F5D7019701268114D002908D11188104B0B4010494B404C
:205920002B439BB2138013E0890051180A88002805DA0C4B1340102253402B4306E00A4B83
:205940001A4080235B015A402B0013439BB20B800020607230BDC0468080FFFFBFBFFFFF9C
:2059600010100000BF8FFFFF8FBFFFFF020048B270B51C23002804DA7F240C406343283319
:2059800001E04B4398330024D3189C707F3421401970C10F59701100FF314C7A0220012C26
:2059A00034D00138487215681A785C7892001848AA18002C13D01488640605D51688154C6B
:2059C0003440154E344314801C78144BA4002C192288134030225A400300134312E0148839
:2059E000640405D516880B4C34400D4E344314801C780C4AA4002C1923881A40C0239B013F
:205A00005340034300209BB22380487270BDC0468080FFFF0F0F0000C0800000BF8FFFFF08
:205A200080C000008FBFFFFF70B58024E40000190C0001335B108218002B08D06578267851
:205A40002D02601A354385520234013BF4E770BDF8B505007F201C2401404C432C1920000E
:205A6000A263E363002201232E002930226401384370FF360170777A02209F422CD0737221
:205A8000E36B676BBB4202D9DB1BE36301E01F00E2631C246143BFB26C18A16BA28D2868E9
:205AA0003B00FFF7C1FF2D6828342B00227850331888D200094BAA181218D21817802378EE
:205AC000074A9B00EB18198800200A4030214A4004490A431A807072F8BDC046020400001A
:205AE000BF8FFFFF80800000F7B505007F201C2401404C432C19E3632300A26301260022FE
:205B000029332264013B5E7019702B00FF335F7A7D38B7423DD05E72606BE36B84468342A7
:205B200002D91B1AE36301E09C46E26328680026030050331A881C23594369180F0028375F
:205B40003B78DB00C3189B18124A9B181E803B78114A9B00C3181C882240202462400F4CB1
:205B600022431A8063466A46D380D4888A8D2300896BFFF759FF296830000B0050331A88B1
:205B80003B78FF35DB00CB189B18024A9B181C806E72FEBD02040000BF8FFFFF8080000025
:205BA00010B58024E40000190C0001335B108218002B05D0601A805A013B20800234F7E7F6
:205BC00010BD0000F0B5036885B00633DB8F04001BB2002B11DB23680633DA8F520500D4D0
:205BE00067E1D98FB44A20000A40DA8700F0D2F900212000FFF7BFFC5BE102AB9F1D0023B7
:205C00003B80206803AA831DDB8F9BB213801BB2002BE0DA0F2315881D4000D0AFE00188E4
:205C2000A64BA74E0B4020214B40802133439BB203800388A34D89012B404B4033439BB2C2
:205C40000380102311880196194027D102889E4B13402200038003002832127850331B8895
:205C6000D2008018C018994BA26BC018038820009B059B0D2364D318A36300F079F9631DCC
:205C8000DA7F002ABDD0E06B0028BAD18022D97F114322684C321180D877B2E703889BB24F
:205CA0003B803B881B051DD5030022005033983219881378DB00C3185B1885495B1821002B
:205CC0001B880D319B059B0D9361FF319288FFF767FF22687F4B118820000B40138000F026
:205CE00029F98EE73B881BB2002B00DB89E70288784B2600134003800300983650331A88C8
:205D00003378DB00C3189B18714A9B181B889B059B0DB36109D03169002906D0B288FFF760
:205D20003FFF3369B2699B1833610021200000F00BF92168F0680B0050331A88644B8A1890
:205D4000D2183E2809D943099BB2C00601D1013B9BB261489B02034306E043089BB2C00786
:205D600001D501339BB29B0213800B881D40C0239B015D40019B2B439DB20D8041E7AB00D7
:205D80000193C3181A8892B23A803A8812B2002A4BDA19884F4A0A401A80030050331988DA
:205DA0001C236B43E3181A0098321278D20082185218474952181688B605B60D09D01A00AE
:205DC000A8321168002904D09C331A883300FFF7E7FE1C2213006B43E3181800B030016899
:205DE000A833891901601968002901D0891919606A43A2181300AC331B68002B04D0110043
:205E0000A43109688E4208D21C236B43E31898331978200000F098F807E010009832A83015
:205E2000117802682000FFF7D5FC80223B88134200D1E6E62068AB00C3181988224A0A40CC
:205E40001C211A8003006943503361181A880B0028331B78DB00C3189B181C4A9B181B8800
:205E60009B059B0D0B6403D08A8D896BFFF7DCFD2068030050331A881C235D436519290088
:205E800028310B78DB00C3189B18104A20009B181A88AB6B9205920D2A649A18EB6BAA63FF
:205EA0000978002B02D100F063F8AAE6FFF7D0FDA7E605B0F0BDC046FFFBFFFFBF8FFFFF8C
:205EC0008080FFFF8FBFFFFF0F8FFFFF02040000060400008F0F00000080FFFF10B51C22AD
:205EE0000C0604D57F2421404A43283201E04A4398328118002088728B8010BD07B50B4BF7
:205F000002689A4211D18023094A1B04D1691F201943D161D2690321134001930022019B39
:205F2000FFF7C4F91F20FFF7F1F907BD005C00400010024072B62021024A13680B431360EC
:205F400062B67047B003002072B601238B4080210548890242681343044A436013680B4355
:205F6000136062B67047C046E4050020B003002072B601238B401021044802681343044A5B
:205F8000036013680B43136062B67047E4050020B0030020FC3010B504000121006C00F044
:205FA000EBF8206C00F0CAF872B68021034A890113680B43136062B610BDC046B003002026
:205FC00070B506780500002E21D1A022114C52003100200000F026FA2300FC331D640E4BFB
:205FE000C035236004232C6063602000023BA3602361FFF74DFA4023320031002868FFF746
:206000006DFF8023320019002868FFF767FF002070BDC0469C040020005C004010B5C030D6
:206020000068FFF77DFA002010BDC03010B504000068FFF790FA2068FFF77BFA002010BD1D
:20604000F8B51E007F23C0300D00170004000B40CA095B009B1801339B0189B200220068FA
:20606000FFF73CFF3B00320029002068FFF79AFA0020F8BD10B5C0300068FFF755FB0020EF
:2060800010BD0000064B10B51B689B0601D54B0603D0C0300068FFF71DFC002010BDC046A5
:2060A000B0030020064B10B51B689B0601D54B0603D0C0300068FFF759FC002010BDC04643
:2060C000B003002010B5C0300068FFF754FA002010BD0000F8B57F2430270A4E0C403668B6
:2060E000A500761935883D40302DFBD0064D2D68AD0601D5002C03D0C0300068FFF7F4FC5C
:206100000020F8BD9C040020B003002010B5C0300068FFF7C7FB10BD1300074A10B51268D2
:20612000920601D54A0604D0C03000220068FFF751FB002010BDC046B0030020002270B504
:206140000400402511004023FFF77AFF2B000022256680212000FFF773FF230001229C33DD
:2061600025621A7018331B68002B03D021795B6820009847002070BD01740020704700004D
:2061800002B4714649084900095C49008E4402BC7047C04603B47146490840004900095A52
:2061A00049008E4403BC7047002243088B4274D303098B425FD3030A8B4244D3030B8B42F6
:2061C00028D3030C8B420DD3FF22090212BA030C8B4202D31212090265D0030B8B4219D334
:2061E00000E0090AC30B8B4201D3CB03C01A5241830B8B4201D38B03C01A5241430B8B42BD
:2062000001D34B03C01A5241030B8B4201D30B03C01A5241C30A8B4201D3CB02C01A52411D
:20622000830A8B4201D38B02C01A5241430A8B4201D34B02C01A5241030A8B4201D30B02D3
:20624000C01A5241CDD2C3098B4201D3CB01C01A524183098B4201D38B01C01A524143091A
:206260008B4201D34B01C01A524103098B4201D30B01C01A5241C3088B4201D3CB00C01A8D
:20628000524183088B4201D38B00C01A524143088B4201D34B00C01A5241411A00D201462F
:2062A000524110467047FFE701B5002000F006F802BDC0460029F7D076E770477047C0460E
:2062C00030B5032A1ED903000B439B0711D004780D784B1C8A18AC4206D016E00133591E72
:2062E00004780D78AC4210D101309342F6D1002030BD03680C68A342E9D1043A04300431CF
:20630000032AF6D8002AE2D1F1E7601BF0E7C04670B50F2A32D90C0004430B00A40731D101
:2063200015000400103D2D0901352D0149191E6826605E6866609E68A660DE681033E66088
:2063400010349942F3D10F2345191340032B1BD91C1F0023A4080134A400CE58EE500433D7
:206360009C42FAD103232D1909191A4005D00023CC5CEC5401339A42FAD170BD0500002AF5
:20638000F5D1FAE70500F2E71A00F8E770B588420BD98B18984208D2991A531E002A03D034
:2063A000CA5CC254013BFBD270BD0F2A09D80500002AF9D00023CC5CEC5401339A42FAD1F3
:2063C000F2E70C0004430B00A40726D115000400103D2D0901352D0149191E6826605E68B0
:2063E00066609E68A660DE681033E66010349942F3D10F2445191440032C10D90023043CB9
:20640000A4080134A400CE58EE5004339C42FAD103232D1909191A40CAE70500CAE7220042
:20642000C6E7C04670B583073FD0541E002A3BD0CEB20300032503E0621E002C34D01400F2
:2064400001335A1E16702B42F6D1032C24D9FF250D402A0215432A0415430F2C11D92600E4
:20646000103E3609013636011A009B19156055609560D56010329342F8D10F221440032C6B
:206480000AD9261FB6080136B6001A009B1920C29342FCD103221440002C05D0C9B21C19AD
:2064A000197001339C42FBD170BD14000300CCE7570000000C09000020007F00646F000898
:2064C00004740008000000000090240902006006000000000010C94FA1FC2402000000002C
:2064E000E0290A83611E0000008CA850A1CD162A54C400000000001C12120C4A52225E00D5
:206500000000280000909424920090449292000041FC8C0400000000000000C88F0000005D
:2065200000000000520000000006000000000002008044242201000023499224490C00007F
:2065400000A3200882200800008003411042081E00008003410C04410E00000020302824CB
:20656000247E20200000008027081E04410E00000027089E24490C000080074108421004AD
:2065800000000023498C24490C00000023499207410E0000000400020000040052000000DA
:2065A000218681400000000000001EE001000000002010184608000000C041880801040048
:2065C0000000E043905C4A29A5947E02F00100000004854211F94441000000009F48E41159
:2065E00089443E000000009E412010080C3C000000003E4242424242423E0000008027087A
:206600009E20081E0000802F08822F08020000007C0202026242427C000000004242427EFC
:20662000424242420000009024490200404444444403009144615048444200000080200804
:206640008220083E000000186698614A2925934C32010000000042464A4A525262420000CD
:206660000000F8081224489020417C00000000008F4824F208040200000000F808122448B6
:206680009020417C40000100008F4824F24844220000008027080606411E0000001F0281F5
:2066A0004020100800000000424242424242423C00000080A04824A250280800000000C4E6
:2066C00028934C4A29A5142184000000004028310C23492100004028490C822008000080C9
:2066E00007210821081E0000E0222222220E10224244080070444444440700C34852080001
:206700000000000000000000007C000402000000000000000000789027491E00000081C020
:20672000231289441E00000000002E84101C0000001088271289443C000000000070922758
:20674000081C000080892784100200000000F892E4085E187A0081C0231289442200000084
:2067600010244902004040444444748020488AA148120000902449020000000080772289CC
:2067800024924822010000000000C02312894422000000000080231289441C000000000056
:2067A000C0231289441E814000000080271289443C10080400E0222202000000270C820E71
:2067C000000000F222220E00000040241289443E0000000000849224310C000000000088F5
:2067E000A84A952A22440000000000004812C3481200000000849224310C410C00808F0830
:20680000111F0000C0442442440C00822008822008822030224224220300000006060000AF
:206820000000009F48241289443E0000000000000000000000009024490224000080244920
:206840001200000000000000000000004002092288F88F0412FF1141040924000000000012
:2068600000000020E0A1204102051C70204192C203020000000000008041480489200924E6
:206880008194614A200924412488846000000000000000000000C001118840041460804444
:2068A000421294400CC3270000000000000090240000000000402422222222224400204252
:2068C00044444444442200102040F0870205110000000000000000000000000000000080C3
:2068E0000001823F081020000000000000000000000000000024050000000000000E000067
:20690000000000000000000000600600000022840821440811000000000070101124489058
:206920002041820409228203000000000000002060A00001020408102040800001000000A0
:2069400000000000780801020408101010101010E00F0000000000000078080104040C0FB5
:206960002080000102E203000000000000000004304001094820821084F01F20000108005B
:2069800000000000000000F810204040800F6080000112C20300000000000000E0302020B8
:2069A00040801E4382040922840700000000000000FC010202040808101020404080000025
:2069C0000000000000007010112488080E2282040912C407000000000000007808112448D9
:2069E00090305E80000101C3010000000000000000660000600600000000660000202200BF
:206A00000000000000040683010C6000010000000000000000000000000000C01F0000FE9E
:206A2000000000000000000000000000000010C0000630180C040000000000000000000028
:206A4000000F08040241100402804000000000000000F880411020C49388242149481292C0
:206A6000C424EE0800040002001F00000000000000C000030C4820810421FC08249040013D
:206A80000200000000000000F04108410411C2072104114410217C0000000000000000C0B5
:206AA00087000102082080000208400002F00100000000000000E00321084220021188401E
:206AC0000422104108C1070000000000000000F811204080003F0204081020C00F0000003A
:206AE00000000000FC0404040404FC0404040404000000000000003F0840000220000220AB
:206B00007C022440048440F00300000000000000004020044220044220FC432004422004E3
:206B200042200402000000000000004044444444440400000004028140201008040281408F
:206B4000200C000000081222428202030A24881021441000000000000000040404040404B1
:206B60000404040404FC000000000000000142C030300C0C8542A15028240949428C102333
:206B800004080000000000000000000040200CC2201442212442244442280443300402006F
:206BA00000000000000000000F084120022440022440022440048210F000000000000000A5
:206BC0000000F81022448810213E04081020400000000000000000000F08412002244002F4
:206BE0002440022440048210F0000800013000000000F0410841041144081F441041084134
:206C0000040100000000000000F80812204000073080000102E407000000000000803F0297
:206C200081402010080402810000000000004020044220044220044220044220048210F056
:206C400000000000000000000002061424481011224450A080000100000000000000403044
:206C6000280C094322914844929024140A85826160180804000000000000000000000409F8
:206C800022820405041428881011141000000000000000814242242418181010101010006D
:206CA0000000000000FC0102020404040808081010E00F000000000000C00B2184104208D6
:206CC0002184F00000200821082104210401000000E021841042082184107A00000020A0B5
:206CE000404184882041000000000000000000000000000000000000000000000000FC01A9
:206D00000000082080000000000000000000000000000000000000000000003C4040407C53
:206D20004242625C000000000002082080007A1822904002092490217A0000000000000089
:206D400000000000780402020202020478000000000000010410407811269040020924101E
:206D6000617801000000000000000000008083882041FE040820840700000000000038411F
:206D8000101F4110044110040000000000000000FC224242223C04027C4281433E0002044E
:206DA0000810A0C38820418204091224080000000000000002202222220200000010000800
:206DC0002184104208210700020202024222120A0A16224282000000000044444444444466
:206DE000040000000000000000003A873122080942829020240809428210000000000000ED
:206E000000000000000000A0C38820418204091224080000000000000000000080838820AE
:206E20004182040922820300000000000000000000007A1822904002092490217A08208055
:206E4000000200000000000000781126904002092410617801041040000100000000BA2168
:206E6000088220080200000000000000C013080C181008E401000000000000F18410420893
:206E8000C10100000000000000204890204182040922C60B000000000000000000100C8AAF
:206EA00044220A858200000000000000000000006128466224499244290C83100801000016
:206EC0000000000000000000004242241818182442420000000000000000100C8A44220A04
:206EE00085824010080300000000E0034120080241E00300000000004610044110034110BF
:206F0000044160000010204080000102040810204080000102040810000080412008822033
:206F200030822008421800000000000000008003780000000000000000000000000000C062
:206F40000F2184104208218410420821FC0000000000000000000000000000000000000007
:206F600000000000030500000305050006090A00070B130006091E000A0F2700090E360004
:206F8000030544000406490004064F000609550006095E000305670004066C0003057200C9
:206FA00005087700080C7F0006098B00070B9400070B9F00080CAA000609B600080CBF0073
:206FC000070BCB00080CD600080CE2000305EE000305F3000508F8000609000105080901D7
:206FE000060911010A0F1A01080C2901070B3501070B4001080C4B0106095701060960012C
:20700000080C6901080C75010406810105088701080C8F0106099B010B11A401090EB5016A
:20702000090EC301070BD101090EDC01080CEA010609F6010609FF01080C08020609140246
:207040000B111D02080C2E02070B3A02070B4502050850020508580205086002070B680259
:2070600006097302070B7C02070B8702070B920206099D02070BA602070BB1020609BC02C1
:20708000070BC502070BD0020406DB020508E102070BE9020406F4020A0FFA02070B09032C
:2070A000070B1403070B1F03070B2A030508350306093D0305084603070B4E03070B590379
:2070C0000A0F6403070B7303070B7E03060989030508920306099A030508A3030609AB03BC
:2070E0000609B403120D000020007F00747200082D680008030500000305050004060A0058
:20710000070B100006091B00090E2400080C320002033E00030541000305460006094B006E
:207120000609540003055D00040662000305680004066D000609730006097C000609850093
:2071400006098E00080C97000609A3000609AC000609B5000609BE000609C7000305D0003B
:207160000305D5000609DA000609E3000609EC000508F5000A0FFD00070B0C01070B1701FB
:20718000070B2201080C2D010609390106094201080C4B01080C5701030563010406680132
:2071A000070B6E01060979010A0F8201080C9101090E9D01070BAB01090EB601070BC4016B
:2071C0000609CF01070BD801080CE301070BEF010A0FFA01060909020609120206091B026E
:2071E0000406240204062A02040630020609360205083F020609470206095002070B590232
:2072000005086402070B6C02060977020508800206098802070B910203059C020406A102D3
:207220000609A7020305B0020A0FB502070BC402070BCF02070BDA02070BE5020406F0026E
:207240000508F6020406FE02070B040306090F03090E18030609260306092F0305083803F2
:20726000040640030609460304064F0306095503070B5E030409000003070900060E1000EF
:207280000A171E00091535000D1E4A000B19680003078100040988000409910009159A00E5
:2072A0000915AF000307C400050CCB000409D700050CE0000915EC00091501010915160123
:2072C00009152B010B1940010915590109156E0109158301091598010915AD010409C20105
:2072E0000409CB010915D4010915E9010915FE01071013020E2023020A1743020A175A023B
:207300000A1771020B1988020915A1020812B6020C1BC8020C1BE3020409FE02071007036D
:207320000915170308122C030E203E030C1B5E030C1B7903091594030C1BA9030A17C403C2
:207340000915DB030710F0030C1B000409151B040E203004091550040812650409157704CF
:20736000050C8C04050C9804050CA4040915B0040710C5040915D5040812EA040A17FC0434
:20738000081213050A17250509153C05060E510508125F050915710504098605050C8F0558
:2073A00008129B050409AD050E20B6050915D6050915EB050A1700060A171706060E2E06B7
:2073C00007103C06050C4C060915580607106D060C1B7D06081298060710AA060710BA06EB
:2073E000060ECA060915D806060EED060915FB060A1710070C09000020007F00F47000082F
:20740000C46400080000000000B06DC30600802D490000000000000012C94FF94B241200BC
:20742000000088B72C0E87A61F02000038B1C60AFBF98D35D6C8010000000078D8B0C1C1F5
:20744000DB3D7BBE01000000B0040000004066333366042066CCCC660200D3FE9E070000B4
:20746000000000C0303FC3000000000000C01A000000F00F00000000C006000023C68C11F5
:20748000030000003C6666666666663C00000000C679188661180000008E0D06C370183E8D
:2074A000000000000F0CC681C1601E0000000030383834347E30300000008067181E866141
:2074C0001E000000380C043E6666663C000000001F0C06C360300C000000003C66663C6660
:2074E00066663C000000003C6666667C60301C000000006CC00600006CC01A00006066862A
:20750000611800000000003FF003000000000CC33033030000C083618E011806000000E05A
:20752000C398DD5B2FBDF67E06E007000000183C3C7E667EE7C3000000009FCDE6B1D96C87
:207540003E000000009EC16030180C3C000000003E6666666666663E0000008067189E61C0
:20756000181E0000806F189E6118060000007C0606766666667C000000006666667E666689
:2075800066660000006066666606008031C618638CB10300E666361E3E3666E60000008075
:2075A00061188661183E000000709CE3BCE73DEF59CD6E760300000000009C39F3E6CD9E31
:2075C0003D73E60000000000F8183366CC9831637C00000000009FCD66F3190C0600000008
:2075E00000F8183366CC9831637CC0000300001E3636361E363666000000006F180E87E7F8
:207600001E0000C0CF300CC3300C000000666666666666663C000000C03CCFB3E7790C0092
:20762000000098B3DDEC6635AB71873BD8000000000000C3663C3C3C3C66C300000080B172
:20764000CDC6C1603018000000803F0C8761380C7F000000C01B638C31C67800600863189C
:2076600043180000E031C618638C3D000006C3239901000000000000000000000000F0031B
:207680000C0C0000000000000000000000C003F3CD663E0000000083C167B3DB6D3E0000C7
:2076A000000000F0C671183C000000188C67BBDD6C3C00000000008067FE1F0C3C000000B8
:2076C00000677C8661180600000000C06FB3790CBEF1D8070083C167B3D96C360000006094
:2076E00060666606008001C618638C31030083C1E6F3786C760000006066666606000000C7
:20770000008076B6D9669B6DB60100000000004067B3D96C3600000000008063BBDF6D1CE4
:207720000000000000C067B3DB6D3E83C1000000C067BBDD6C3E180C060000ED8D31060061
:207740000000007886C7C31E000000986F8C311C00000000C066B3D96C2E000000000060F7
:207760006CB3D9381C000000000000C0CCB6F9E71F33CC000000000000E06EE3706C7700F9
:2077800000000000606CB3D1381C06C3000000FC18C3183F00008033C6CE618C710000C3E6
:2077A000300CC3300CC330E018633837C61C000000006F0F000000008027499224491E0064
:2077C00000000000546F0008546F0008546F0008546F0008546F0008546F0008546F00081C
:2077E000546F0008B4640008E4700008F473000821842401088A2808FFFFFF00000000004A
:207800001FFE013E000783E1213000008007F043FC183F0EC007F8870F000000FFFFFF00E3
:20782000000000000000000000000000000000000000000000000000000000000000000048
:20784000000000000000000000000000000000000000000000000000000000000000000028
:20786000000000000000000000000000000000000000000000000000000000000000000008
:207880000000000000000000000000000000000000000000000000000000000008000000E0
:2078A0000600000001000000007C0008587C00080700000007000000010000001C7C0008B2
:2078C0007C7C00080E0000000E00000001000000A07B00082B7C00080400000007000000AE
:2078E00001000000147C0008787C0008040000000700000001000000547B0008F0770008A1
:20790000070000000400000001000000607C0008F4770008070000000400000001000000F8
:20792000287B0008087C0008100000001000000001000000987A00087D7B00080E000000C7
:207940000E00000001000000B47C00087C7A00080E0000000E00000001000000C07C000881
:20796000F47A0008070000000700000001000000EC7A0008247C0008060000000100000065
:2079800001000000707C0008BC7C0008100000000A00000001000000C47B0008447C000888
:2079A000100000000A00000001000000907C0008D07A00080E0000000E0000000100000029
:2079C0000C7C0008C87C0008100000001000000001000000887C0008B07A00080E0000005E
:2079E0000E000000010000004C7B00080D7B00080E0000000E00000001000000687C000810
:207A0000987C00080E0000000E00000001000000A07A0008E57B00080E0000000E00000087
:207A2000010000001C780008CC7B00080E0000000E00000001000000A87A0008647B00082C
:207A40000E0000000E00000001000000F8770008307B00080E0000000E00000001000000C2
:207A60005C7B0008007800080E0000000E00000001000000E47A0008A87B00081FFE013E9D
:207A80000047883927FC001E8007F043CE19210EC007F8870F000000FFFFFF00000000007B
:207AA000FFFFFF0000000000FFFFFF00000000000000F00FFC3F7C3E5E7A0E701E78866105
:207AC00086611E780E705E7A7C3EFC3FF00F0000F81F042032407980FD80FD8079803240D4
:207AE0000420F81F00000000FFFFFF0000000000FFFFFF001FFE013E00C78FF92786816117
:207B000060181846FE193F0EC007F8870F1FFE013E000783C12030000C0003004030180C3C
:207B20000EC007F8870F000000000000FFFFFF001FFE013E000780E121FEC1F3F03CF847E3
:207B40007818000EC007F8870F000000FFFFFF000000000000000000FFFFFF00FFFFFF003B
:207B6000000000001FFE013E0C0783E12178003F8007104278181E0EC307F8870F33C03149
:207B800080300030003F003F003000300030003000FFFFFFFF300C300C318C33CC00000097
:207BA000FFFFFF0000000000E001FEC1E13870CEDC337F801FE007B8016680F13FF8077877
:207BC0000000000000000000FFFFFF001FFE013E0AE7873123CC003FC01C3046CC993F8EF1
:207BE000C207F8870F1FFE013E10078CF927FE0132C004F847FE19038EC007F8870F0000DE
:207C000000000000FFFFFF004111050100000000FFFFFF0000000000FFFFFF000000000015
:207C2000FFFFFF000804E28F4020001FFE013E0007800124808370700EF8413C18060EC010
:207C400007F8870FF81F0420024C019E01BF01BF019E024C0420F81F804020110A040000C0
:207C600000000000FFFFFF00FFFFFF000000000000000000FFFFFF004812420841110541D1
:207C8000110501001E00000000000000FFFFFF0000000000FFFFFF001FFE013E0C0783C102
:207CA00020FC001E00030040FC183F0EC007F8870F000000FFFFFF0000000000FF00000095
:207CC000FFFFFF0000000000C00030C000300000000030000FC0000000C0C03030C00030F8
:207CE0000000740174012E02E8025C04D005440700000000000200030004000600080009E0
:207D00000000312E300000030201E99EFC695632833A6E40C1D0882C3DDC13DADC3E0CC4BA
:207D20001CCBA8F7B282F8F6B9BEF4B54B36258FC88BA1664814B7EABE3373E40D777E1E87
:207D40003F00C8F6066275A7FC0B7E021788AE597579A3FA530EFE29699478FD9ACDBF5872
:207D60006133ED633D5FBD227D7C4DE8E786B042CC57BA05D7F57A83564F40433D3B006E5E
:207D80004CE2DA9E940C67AC43BF00E6ACF8E8CEBEB455DD4A6A63F58BBBE348AF8873FC81
:207DA000AA2F328E50AB5EC18F152C5BB0137D34E672C49578A8EE9F825B3F7BB0F4DD2AD1
:207DC00036DDD4C84667E92914F825BE6CC7E470FD32F63FE2ADF6CA7650A27F5504028446
:207DE0006AAE1A3822A3EBC7ECFE6AB6941FC3FE72E405CD337D9D3DEB1112373B691DE785
:207E000073974263BE24F9BEA348006C210082EDB32C5390F10042AA00A3B08817F7542E29
:207E2000001E770040E0967C4FEC3D001A8500BB3F9942995CD68327D540FE8FDDDA5DD292
:207E400066DAC8ED0CC682F006B7EAFBF8C528BE0AF443A2A529528BD8B14827154683330D
:207E60007AC60D817F1ED8641DB40621EAA7A8A07E81D225EE590519A3858B0E24F422989C
:207E8000786FBDCDE4E361CB9553835F44CF7D510AE86CC8740ACC365705148C7A8E3C8A63
:207EA0005E4362A6000820E27D764C726725F0BF19CBAC5B210CB0B43DBC4A9238F5467DE2
:207EC0006C29AFC7BCFCF59B32F3DAE7B6C16D702C97A43678B7B808C4069AA8ADD2D95BCA
:207EE0002EEF52F49EF536BAEAACF93CB4851468DBBED86BD43ABA16033F178AF6659FCEB7
:207F00005E16033681BE04EEDBE8AA8FD61BFF24B68898DBDF35DA13B74FCB8B24831FA4FB
:207F200059011EE6D56CD2F10A7709CE478DD0AC0D1B5F1EBDED7BDA55F284A7BEA17EA1A3
:207F4000A700B9AE2157A3E4240EBEC9FFE83711A7CDA5DD6188D2FA7FC6E1F4FE5B98A8CE
:207F600019096D989185DCDF1F187645D4BF46F4D7C0F8AB645CD06AD7AEC2851134D857D6
:207F8000E4DFFD883D872F1B47EB1CEB53DFFEFCA9A9995B028F4C0F828EB0988A0C8FDE99
:207FA0003B1D59C0C4EABCFAC5650A7CE390AA28304402200419E6BD21091CE4B362095702
:207FC00032339A6A9D376DAAFAEC143A5FC4D62B8F52E0E70220169C39C209D513A3306F4B
:1E7FE000FE9839499E5CF7CFD9CDD7DF39EEF6537370977B7D24464646464646464619
:04000005080030C1FE
:00000001FF
