:020000040800F2
:2030000000180020C1300008FD540008FD540008FD540008FD540008FD54000800000000C2
:20302000000000000000000000000000FD540008FD54000800000000FD540008394A0008FA
:20304000FD540008FD540008FD540008FD540008FD540008FD540008FD540008D14A0008DE
:20306000FD540008FD540008FD540008FD540008FD540008FD54000800000000FD540008E1
:2030800000000000FD5400080000000000000000FD54000800000000FD540008FD540008CC
:2030A000FD540008FD540008FD540008FD540008FD540008FD540008FD540008294A000826
:2030C000002110B5044B054A934201D202C3FBE701F070FD10BDC046000000204008002064
:2030E00013B501248C408A404B1C01930368A3431A43026013BD0000F0B51F4C020089B027
:203100000E0020000021FFF7EBFF022209250292236893432360013DEDB20623002D18D09B
:203120002027049323683200BB4323607F239A430192019A0721531E9A410F48FFF7D0FF36
:203140000623039323687600BB431F432760F6B2E1E720220793236893431E3A23600692A8
:20316000236893431343013A2360059223689343236009B0F0BDC0461400004810B50100D1
:203180000020FFF7B9FF10BD10B501000120FFF7B3FF10BD0022014B1A6070473402002043
:2031A000014B18607047C04630020020014B18607047C04610000020014B18607047C0460A
:2031C00028000020F8B51F4D2B68002B39D01E4BA7201B68002B00D1A620FFF7CFFF1B4B28
:2031E0001B68B42B04D0C020FFF7C8FFA02003E0C820FFF7C3FFA120FFF7C0FF8120FFF7AC
:20320000BDFFFF20124B64211B680024584303F007F9C0B2FFF7B2FF502000264042204328
:20322000C0B2FFF7ABFF0B4FE301FF18B85D0136FFF7AAFF802EF9D10134042CECD100237F
:203240002B60F8BD1400002030020020100000202800002030000020F0B500268DB00D00CB
:20326000B04200D0E2E050277F4238003043C0B2FFF784FF80240020013CFFF785FF002C55
:20328000F9D10136042EF0D12B786A781B0213430293AB78EA781B0213430593644B0194D9
:2032A0001B6803940693029BDB0807932300013B00935F4B069A1868059B9B18834200D895
:2032C000B2E0069B0599C01A029B0024584303F0A7F8079BC708DB1B08930723FF221840B0
:2032E00001331B1A1A41089B524EDB01F61807230B92029A1340099309331B1A0A9350200D
:2033000040422043C0B2FFF739FF0B9B0493A74201D0FF2304933500803D089B002219198F
:20332000022903D86B1CFF331A7812042B0080331B781B021A430023994200D02B78134374
:2033400018000A9AD040049A1040009AA24204D1039AD340019A13401843C0B20135FFF7C9
:2033600013FFB542D9D1803501342E00A742C6D22F4B029A1868069B0599C01A20239B1A5A
:20338000584303F04DF80325C4082B1B072700930823FF220740DB1B9A40079B0892E418C4
:2033A000244BE4011C19009B9D4282D3502040422843C0B2FFF7E2FE079B009A9B1A0B9381
:2033C000089B0193954201D0FF2301932600099A7B1C9B180393803E0B9B0022E9180229FD
:2033E00003D8731CFF331A781204330080331B781B021A430023994200D0337813431800AF
:20340000039AD040019A1040002D04D10A9AD340049A13401843C0B20136FFF7B5FEA642D5
:20342000DAD1013D803CBEE7FFF7CCFE0DB0F0BD3C08002030000020F0B53D4C8BB0029267
:2034400022683C4C039225683B4C3C4B226801241B68059104933A4B3A4E19683A4B346024
:203460001B68049E0793394B394F1B6808920193384B06941B68029A002A4AD08446059AE7
:20348000127809926246141A002911DB002E0FDB099AE2401400069A1440089AA400A458F5
:2034A000002C02D0FC5C2C4301E0FC5CAC43FC54039A0133013693421ADB0722019B013106
:2034C000013B0193CB1713405B18DB109340049A214C9B18079A0C409A180392002C04DABA
:2034E0000822013C524214430134069D049EA540019A002A0DD0029A121A02926246072A44
:2035000003D8029A8444002ABCD1059A01320592B1E70B4A11600D4A019911600D4A1360C2
:20352000034B039A1A60034B1D600BB0F0BDC046180000201C000020240000200400002011
:2035400008000020140000202C0000200C00002030000020200000200700008070B57F28B4
:2035600033DC1F2931DC8418802C01D98022121ACC18202C01D920235B1A0724CD172C40BA
:203580006418E410114DE4012418286010480160104802601048A2180360104B1C60104B9A
:2035A0001A60104B194004D5082301395B421943013101238B400C4A07991360059A0B4B27
:2035C00006981A60089AFFF737FF70BD04000020080000202C0000200C00002020000020D4
:2035E00018000020070000801C00002024000020F0B585B00290C81880283ED800293CDB42
:203600000A981018202838D8002A36DB07240127A4460A9D3E005D4300956546BC46D01069
:20362000C00114404018A6401C180194144C03952760144C009D002D1FD0029D275C002D87
:2036400001D0374300E0B743019D2754013085420DD86746039E01321640B7403E000A98A1
:2036600001380A90D010C00140181D180195009D013D00950A9D002DDCD105B0F0BDC0465A
:2036800014000020300000201823534310B5183BC918002A06D00B001C68013A18398442FB
:2036A000F7D100E01300180010BD0000084B10B51A68084C03051B0D511E002A06D08A0053
:2036C000A0580A0001688B42F6D100E0100010BD2C6700083C7A0008F0B585B002910192D5
:2036E0001C00FFF7E3FF071E38D00025019B1B190393019B039A93422FD0019B1C780133AD
:2037000001933B899C4202D37A89944219D90A2C23D00D2C21D0BF2C02D93F26264014E0FB
:2037200000267F2C11D920202040431E98410E30FFF7BCFFB04208D01F231C40A400C368CE
:2037400002E0E41AFB68A400E65C029BAE19002B01D09E4201DCB5B2CBE7280005B0F0BD80
:20376000F0B59DB00CAD0991079208930C926960FFF79CFF071E00D1EBE00379012B0FD888
:20378000239A089B9446249A634494460A93269A229B634494460993259B63440B9356E03E
:2037A00001249C4040220021280002F077FF079B09992B60631E9A00515100220A93A31EE9
:2037C00006920B93069B099E079CDE40FF231E40069BDC40FF231C40331EA34200DA2300BC
:2037E000301EA04200DD2000181A01300A9902F017FEA64204DC0B9B43439E1901231DE0C3
:20380000012324180A9A9A421BD99900221EFF2A00DDFF22069E0133B2406E582418324393
:203820004A51EFE79900321EFF2A00DDFF22069C0133A2406C58361A22434A510A9A9A42BB
:20384000F0D8069B08330693182BBBD198E7089C259B0B9A934278D0259B1E780133259375
:203860003D89AE4202D37B899E422FD90A2E01D00D2E05D1099B229A9342E8D2130065E070
:20388000BF2E06D93F2500227B7935402299069231E07F2E27D920203040431E98410E3034
:2038A000FFF704FF002821D01F25C3683540AD005D196A880369B979229E9A184379807938
:2038C0008919091A00202D78069014E0FB68751BAD005D196A883B692D789A18FB792299A2
:2038E00006937B7907E02299002201E0020022991500130006920A9E6019864207D222989D
:20390000099EC0182290181886421ED3089C002A10D0387903920CAA019201220600824065
:203920006E435E430290009204962A002000FFF715FE06E000930A002B0021000798FFF7C0
:2039400057FE069BED18641982E7229B1804A4B220431DB0F0BDF0B50E0001218FB00392D1
:2039600014AA1278C91A0892159A0A91991A049100210290099305918A4205D0049A04992F
:20398000D217521AD20F059201251C000027049A013A0692B21A0B92049AAA1A0792039A7F
:2039A000013A0C92BC4200DA16E1089B2B421AD0059B002B10D0039B3100FA18069B0095A3
:2039C000E31A16980D92FFF713FE069BA119C91A0095049B0D9A03E0230031000C9A00950B
:2039E0000298FFF705FE0222089B13421BD0039BE218059B002B0FD0099BA34205D00095F8
:203A0000079B31001698FFF7F3FD039B0095E218079BF118049B03E03B003100013A0095A9
:203A20000298FFF7E5FD089B5B071CD5331B0D93059B002B10D0039B311BFA18069B009553
:203A4000E31A16980D92FFF7D3FD069A331B991A0095049B0D9A03E023000C9A0095311B4D
:203A60000298FFF7C5FD089B1B071AD5039BE218059B002B0ED0099BA34205D0F11B009500
:203A8000079B1698FFF7B4FD039B0095E2180B99049B03E03B00013AF11B00950298FFF735
:203AA000A7FD089BDB061BD5039BDB1B0D93059B002B0ED0069B0D9AE31A31000095169858
:203AC000FFF796FD069BA119C91A0095049B0D9A03E0230031000D9A00950298FFF788FDBC
:203AE000089B9B061AD5039B1A1B059B002B0FD0099BA34205D00095079B31001698FFF7AC
:203B000077FD039B00951A1B079BF118049B02E03B00310000950298FFF76AFD089B5B06A1
:203B20001BD5039BDB1B0D93059B002B0ED0069B0D9AE31A311B00951698FFF759FD069AF8
:203B4000331B991A0095049B0D9A03E023000D9A0095311B0298FFF74BFD6B4620229B187D
:203B60001B785BB2002B19DA039B1A1B059B002B0ED0099BA34205D0F11B0095079B1698BC
:203B8000FFF736FD039B00951A1B0B99049B02E03B00F11B00950298FFF72AFD0A9B0137FF
:203BA000002B06DC0A9A7B000133D3180A93220006E0621EBB1A0A995B000133CB180A930E
:203BC0000B9B0994013B0B93079B1400013307930C9B01330C93E5E60FB0F0BDF0B595B0A9
:203BE0000D93037807920F9380230F9A04009A4306910B92052A00D11DE2078B3800FFF74F
:203C000055FD00283DD083790C9343790E93069B002B3CD0079B002B3BD0E6886B46310025
:203C20000D9A64311B7F89B200923800069AFFF753FD079B311A0A93BB0B05009A03089138
:203C4000012B09D080231B029A4203D176084008331A00E000230893C0239B011F408023BD
:203C60005B019F4209D080239B019F4217D127890C9B7F08013F5B0801E027890C9BFB1A58
:203C80000EE00A90050003000E900C9004E0069B00E0079B1D000A930993089301E000235E
:203CA00009930B9B581E062800D95AE202F0AEFB070055010700B401C30142025501E3888C
:203CC0002089E27A59084508A94200D20D00954200D91500227B6E0094460421625E0227AF
:203CE000E15F67469B1B49190090012F52D06069FFF77EFC0423E25E0223E15E23895219C2
:203D00009B1B009360692B00FFF772FC0423E25E0223E15EE3885219C918238901399B1BE4
:203D20000093491B60692B00FFF762FC0421625E0220215EA07AE38800909B1B2069491908
:203D4000FFF756FC0422A15E2289E3888A180220215EA07A9B1B009049192069013AFFF721
:203D600047FC0421625E0220215E2089A37A801B009052192069FFF73BFC0221605E042162
:203D8000625EE188A37A411820895219861B013900961AE02069FFF72BFC0423E25E0223D3
:203DA000E15E238952199B1B009320692B00FFF71FFC0423E25E0223E15EE3885219C9181D
:203DC0002389491B9E1B2B0000962069FFF710FC012D52D9237B0026012B03D0A37A9D42B6
:203DE00000D9EE1A0423E25E0223E15E636901960293C023009352192B0049192069FFF732
:203E0000AAFD0423E25E0223E15EE3885219C918A37A491BC91A6369019602933023009337
:203E200020692B00FFF797FD0423E25E2389D218A37A521BD21A0223E15E63690196029375
:203E40000C23009349192B002069FFF784FD0423E25E2389A07AD2180223E15EE388521BC0
:203E6000C9186369491B0293032301960093121A091A2B002069FFF76EFD0025A07EA842BB
:203E80002CD00423E75EB84BB8491A68FFF7FCFB061EAE4222D0238B42689B0B022B00D145
:203EA0001500F168B3688C46218958084908091AC9190227E05F089FC0196F08C01B674660
:203EC0005F43574304977769039767460297366901960126BE400096FFF740FB069B002B5D
:203EE00000D13EE1079B002B00D13AE1238B22690A93217B6369012901D1190001E01100D4
:203F00001A000220235E08986D081B185B190B930423E75E02230998089E3F18E0889C4611
:203F2000801BA67A002E01D073009C4663462489C01A099B451BE41A0220002E00D07000B0
:203F40000D9B241A0593079B02940493069B0195039300970B9B0A985BE0237B012B2BD167
:203F60000B9E0223E15E60690422A35E0C9A072E00D000220B9E9A1A0E9B072E00D02389C0
:203F80000093089BFFF734FB089B0B9E5D190223E15E0423E25E606949190C9B072E00D062
:203FA0000023E688D21A731B0B9D0E9E072D00D026890096FFF71CFB069B002B00D1D0E0FF
:203FC000079B002B00D1CCE00225635F089D0B9F5B199C46208B216962690423E65E099DF8
:203FE000072F01D10C9D6D42089FAD190B9BE6882489F61B099F072B00D100270D9BE41BA9
:2040000005930A9B02940493069B0196039363460095FFF7A5FBA4E0E37A002B00D04EE684
:204020000421625E0220215E2089E38800902069FFF7DEFA95E00222A35E08930423E25E63
:204040000992A07E002841D00F9B052B0AD10D9B002B07D0464B1968002903D0454B1A68EF
:20406000002A02D1404B41491A68FFF70DFB002877D0079BC768002B09D00423079ABB40A7
:2040800093426ED1960802D0069B002B04D10126BE400369B6B20693836821895D0849081E
:2040A0004268E488491B099D640849195508641B089D64191D0055437D43049540690297C4
:2040C0000390069800960190200017E0069B1978022916D92389E288180050434843049045
:2040E00004208840069C01302018039010A80190012088400291009009990898FFF72EFA81
:204100002FE001228A4006989300033BC318013AE0D31E7858783602064398783604000238
:2041200084466546D87897002843064310A83E50043BECE7E37A0222A15E267B0425625F0C
:204140002069C918D2180025012E03D0A67AB34200D99D1B646901950294FF240094FFF798
:20416000FAFB15B0F0BDC046EC7D0008D87A0008380200203C020020F0B5C36A99B0040030
:204180000B92002B02D08B4200D96AE1E2880C92002A00D165E1A27E002A00D161E1A26AE2
:2041A000120F042A00D15CE1002B08D17F22A07AA3620240642042435118E1626362E669D3
:2041C000002E00D14DE1238C0993002B00D148E18022237893431F1E072F02D0022B00D0ED
:2041E0003FE1238B18000693FFF760FA0890002800D136E1E31CDB7F9B4A079300930021BC
:2042000001230698FFF768FA24226B469B181D78079B1790009332002B0000210698FFF757
:204220005BFA0C9A1090904200D81AE1089B099A9B790893636A934201D900236362636A18
:20424000079A0D93F3180E930D9B0092EB1ADBB20E9A00210698FFF73FFA079B1390009337
:204260000E9A012300210698FFF736FAC023069A9B01119013402089089A851A802252019B
:20428000934209D0802200259201934204D1089B4508013D5B08ED1AA36A109A1B011B09DD
:2042A0000F939B1A1293129A139B944663440A9323690A991493636915930222A35E5B1AA6
:2042C000169329000423E65E072F01D1089B59420C9B8E191900119B9C460A9B6144CB1839
:2042E0009C460021072F00D02900179B0D9A01330C93079B411A0593099B02919B1A049348
:204300000E9B159A03936346149901930096169B0698FFF725FA0223E15E0C9B6069C91A14
:204320000423E25E2B00072F01D1089B5B429A1800262389072F00D02E009B1B00930C9BFB
:20434000FFF756F90223E15EE3886069C9180423E25E2B00072F01D1089B5B429A180026ED
:204360002389072F00D02E009B1B00930C9BFFF73FF9FEF727FFFA21A57E0B9F89006F4301
:20438000380002F04DF80B9B5E006E431D00002808D1FA210B9B30008900ED18F61902F05B
:2043A0003FF8F4E78021A36A49051A0F12078A4221D002D8002A09D053E0802189058A42E5
:2043C00026D0C0239B059A423CD04AE0E26A5519E562119A0A9DAA420BD8626AE5880132C4
:2043E0006262129A5242AA4203D80F9B1943A16237E0C31834E07F23A27A134064225343B6
:20440000E26AD318E36280230F9A9B05134327E0E26A5519E562119A0A9DAA420CD8109A0A
:20442000139DAA4205D8C0239B05A3620023636217E0626A013A62621B011A09131A194309
:20444000A1620EE07F236422A17A0B405343E26A49B2D318E3620023002901DA8023DB0526
:20446000A36219B0F0BDC0462867000870B501250F4B10491C680F2322680340AA43226034
:204480000209AA40AB40505A0B4A2669995A01F0C7FFFF2380B242005B00700018405043B8
:2044A000F73BFF3B9843E06023681D43256070BD50040020547F0008347F0008084B1B68F8
:2044C0009B0302D496235B0001E096239B00054A0549526808689B1A181A80B27047C04682
:2044E000000002405800024070020020F8B507000C001500FFF7E2FFA0422FD26B1CF9D06F
:20450000013D002DF6D129E09622164D52002B682600D31A9C4201D32E68961B002F07D04E
:204520002B6811493800C918320002F06BF8BF192B68A41BF6182C232E602A68FF33A4B2BF
:204540009A420BD98021094A890253680B43962153602868490001F0E9FF2960002CD3D19E
:20456000F8BDC046700200207402002000000240F8B505000C1E3DD09626012776007F4212
:20458000221EB24201D99622520040202B00AD18194A19499D4207D0176219781185D1695E
:2045A0000142FCD00133F4E7144ACB691340902BFBD1FFF783FFB44215D82100A04202D23F
:2045C000FFF77CFF0100012289B252420020FFF78DFF231CB44201D9094B1B88E41AA4B27B
:2045E000002CCDD106E02C23FF339842E8D996214900E8E7F8BDC04600380140900001005B
:20460000327F000870B505000E00FFF757FF0228FBD90122032152422800FFF767FF6B781D
:20462000A9781B020B43B21E9CB29A4201DC033EB4B2FFF743FF8442FBD80122E81C210057
:2046400052420334FFF752FFA0B270BD10B5FFF78FFF10BDF0B502279026794D794C85B06F
:20466000002128222800F605278002F017F81120FFF7FCFE7269744B64201340736100F0AE
:2046800045FF80227369D200134380227361520239002800FFF72AFF04222B786E78934361
:2046A000278000953B2B01D00024C5E0002503AB1D705D7001950F2733003A00BB434CD03E
:2046C00010231E4210D001225D4F2088524238180121FFF70BFF012D03D82388FA5C03AB32
:2046E0005A55238801332380B3060AD50122009B2088524218180121FFF7F8FE23880133DA
:20470000238073060AD50122009B2088524218180121FFF7EBFE23880133238073B20026A6
:20472000B342C8DA0122009B2088524218180121FFF7DCFE2388009A0135D65C0133238042
:20474000019BEDB2002B05D10F3333405A1E9341DBB200E001230193ADE7394D6978394083
:204760000AD0208889B22818103AFFF7BFFE6B781F402388FF182780019B002B04D103AD48
:204780006C78002C12D119E00122009B2088524218180121FFF7AAFE0022238801339BB2F5
:2047A00023809342EBD90132D2B2FAE7802C00D07AE72878FFF75AFE7F3C3DE02E78112E9D
:2047C00039D0002E37D0022000F0A0FEFF231F4804210370EF3B4370213B86705E40C670C7
:2047E000FFF7C6FE01221A4E524202213000FFF77DFE3378FF2B00D056E7EE3B2B7073788B
:20480000002B0AD0102B17D10122B01C52420221FFF76CFEB3782B7005E00122B01C52423C
:204820000121FFF763FE2B78982B01D1813B2B702878FFF71BFE0124200005B0F0BDC04614
:2048400048020020A4030020FFFBFFFFA003002044020020F0B55C4F89B05C4D002800D1DB
:204860009AE08023902400265B000393FE3BE40504930133069303A9023B2000079305968C
:2048800000F094FE80239B000393FF3BFF3B049303A9013B2000059300F088FE08226369AB
:2048A00003A993436361636920003B4063618123DB00039301230493DB18059306960796F3
:2048C00000F074FE0822636931009343636163691F4080236761AA69DB011A43AA61AA69B5
:2048E0003B4F1340019348223800019B01F0D6FE0121384B20201A683B608A431A60364A7B
:2049000036491A60FC2292015A60802212019A6002221A61802252015E61DA600122524240
:204920001A625A680A400A215A609A688A439A6099680143996001211A6802431A60284A2E
:2049400028481660284A1660284A16606A690A436A616A6980250A400292029A2C31244AF9
:20496000FF3151602349ED0091602349D160016829430160A32111609A6863390A439A601F
:204980001A683F390A431A6008226369982013436361FFF75FFE15E09024E40563691B20A2
:2049A0001F40676100F0F8FDAB690C4A20001340AB61E023DB000393032303A9049300F035
:2049C000F5FD012009B0F0BDFFFBFFFF0010024050040020003801400C940000FFBFFFFFCB
:2049E0007002002000000140A80300204002002058000240243801407402002010B5002104
:204A0000FFF728FF10BD0000BFF34F8F024A034BDA60BFF34F8FFEE70400FA0500ED00E003
:204A200010B572B6FFF7F0FF10B5024801F006FA10BDC046980400201D4A13680833136085
:204A40001C4B1B68002B12D01B4B1A6808321A601A4A19681268914209D372B6802018498C
:204A600000010A6802430A6062B600221A60154B5A68002A12D01A6808321A601A6908323F
:204A80001A611A69632A09D972B680200C49C0020A6802430A6062B600221A610A4B1B681C
:204AA000002B03D0094A1368083313607047C0463C080020380800202C080020F40600208D
:204AC000AC03002038040020B0030020F806002010B572B680211B4C63690B4211D0616109
:204AE000194800F00BFE194B002806D11860197D5A680A435A60186103E0197D5A688A43A1
:204B00005A608021636909020B4213D090200D4BC005596100F0F2FD0C4B002806D11860FF
:204B2000597D5A680A435A60186103E0597D5A688A435A608021064AC90213680B43136063
:204B400062B610BD000401400004004838040020AC03002010B5094CB42806D10020FEF7D2
:204B600025FB01232375DB1805E0B420FEF71EFB02232375013B637510BDC046380400209F
:204B8000002270B50D000400074B01001A60074B01321A600648023201F0F6FC2900200043
:204BA000FFF754FD70BDC046F8060020B0030020D8050020F0B5C94BC94A93B01A60C94AF1
:204BC000C94B01901A609020C02300240227C74D5B010DA9C005AC600D936C600E942C6045
:204BE0000F97109400F0E2FC8023C14E9B02726990201A43726172690DA913400893089B71
:204C000080231B020D93BB4BC0050E9301230F9300F0CCFC80237269DB021A4372617269E4
:204C20000DA913400993099B8023B3480D9300F0BDFC072000F0A6FC22003900072000F019
:204C400071FC220021001B2000F06CFC62B6AB4B20001C60AA4B1C60FEF79CFA2000FEF756
:204C60009FFA1420FEF7A8FA2000FFF773FFFA20A44B40002C601C60AC606C602C6100F0A2
:204C800045FCA14B01201C70FFF7B8FE302221009E4801F003FD9E4B1B88052B5AD1380025
:204CA00000F034FC01239B4D019A2B700A236C70AB70994B280093429B415B425B00EB705E
:204CC00004222123954909302C716C71AF71EB712A7201F059FC0D212800FFF751FF0122BC
:204CE0008F4B1A608F4B0B945C608F4B8F4AC0331C608F4BD31A01931B0E0393019B1B1424
:204D0000DBB20493019B1B12DBB20593894B082219687E48FFF730FA814B1F68012F00D1C8
:204D2000FBE1022FF2D1FFF7C9FB06AB9D1D28802B88022B19D99621764C49002000FFF72C
:204D400061FC28806378A2781B0213430A932378662B01D0FFF758FE0D23237000230321F6
:204D600020006370A370FFF70BFF734C2368002BCCD000230C932368802325685B031D40E4
:204D800039D01223634D674C2B70236803211B0ADBB26B7023682800DBB2AB70FFF7F0FE5C
:204DA0006368002B12D123680421043B23606B461B7B28002B706B461B7C6B706B461B7D32
:204DC000AB706B461B79EB70FFF740FC2368002B06D06068564B2168C01889B2FFF736FC2D
:204DE00022686368D3186360802301225B030C934B4B1A608BE1802322689B011A4016D068
:204E00000C9301260F2343480421037045708670C670FFF7B5FE72B6484B9D60DD6022686E
:204E2000474B1340236062B63D4B1E606FE18021236809020B4009D00C910F230124042128
:204E40003448037042708470C1700EE08021226849020A400ED00F222E480C910124027025
:204E60004370082304218470C370FFF789FE2C4B1C604CE12027236810263B4066D00B2384
:204E8000244D2E706A70AB70EA7008220A3B2B716A7172B62B49A81D0D31FF3101F074FB9F
:204EA000012123682800BB432360244B9A688A439A609A68002A02D12268B2432260012142
:204EC000DA688A43DA60DB68002B04D11A4A1E4B11680B40136062B60E2166E0B4030020DE
:204EE000006CDC020030000800000020380400200010024000003110000400482C08002081
:204F000038080020B003002028080020C4060020A4030020FC060020B70B0000747F00087E
:204F2000DC0500203008002000060020B07F0008000000083C080020AC030020E00500207B
:204F4000CFFFFDFF98040020FFFFFDFF2268324036D0C64A9168002930D011000120050066
:204F60009D408C68DEB22C4225D010240021C048047041700331817080213143C17002215D
:204F8000017172B61A314B43BA49CB181B6CDBB243719368AB4393609368002B03D1B64A1A
:204FA0001368A343136062B60621FFF7E9FD0122B24B1A60AAE60133042BD0D1102361E060
:204FC000802321689B020B405ED0A84BD968002956D0140001210F00A740D868E2B2384292
:204FE0004BD0A44BA64E1B68E0001D009B1996265035298876000918C95A8905890DB142BC
:2050000005D829884018C55AAD05AD0D01E096256D001023964EE9B23370EB1C1B0ADBB208
:205020007370CB1CDBB2B3700423F2703000337171710621FFF7A4FD1C235C438D482B001B
:2050400004199C3422883100006800F0E5FEA9B23000FFF7FBFA0122884B1A6072B6834B71
:20506000DA68BA43DA60DB68002B04D1824A854B11680B40136062B648E60134042CAAD17B
:2050800080239B020C9342E080222168D2017B4D11420DD00C920F22754801240270437043
:2050A000022304218470C370FFF76AFD2C602EE023685B0318D572B6734B6D485B686E4A9C
:2050C0005B00DBB2C3701168704B0B40136062B60523012403700023042143708470FFF706
:2050E0004FFD664B1C6011E6634B1A6880231B011A4200D10AE60C930E235D480321037028
:20510000002343708370FFF73BFD01232B6072B6594A0C9913688B43ACE7FFF7CFF906AB2E
:20512000D8809D1DDB88022B00D8EFE59621504C49002000FFF766FA288000256378A2784D
:205140001B0213430A93524B26001D602378DBB24F2B00D1D8E00ED8462B22D006D8322B50
:2051600000D177E13E2B00D196E1CFE54B2B18D04E2B18D0CAE5652B2BD006D8502B00D17E
:205180002DE1602B00D191E0C0E5662B00D198E1682B00D0BAE5E078211DC0B2FEF75CF861
:2051A0008FE1FFF73DFC0A9B022B00D0AEE572B6E37822791B021343364A136013685A1EA4
:2051C0009341354A1360354B2B4A1D601168344B4FE70A9B1B2B00D898E50A9B029A9A420C
:2051E00013D11C220A9B934200D80A9AF11C2D4801F0A2F9002808D131000A9A1F311C3A0D
:20520000294801F099F9002828D072B6254C30220021200001F042FA62B6154D224E29000E
:205220000A9A1F311C3A300001F0AEF91C220A9BE6611C3B23840A9B26002900934200D893
:205240000A9A0331300001F09FF90A9BE1690293F31CDB7F228C3000FEF7C0FC0D230448C5
:205260000321037000234370837030E1E0050020FC06002098040020AC030020DC0500200A
:2052800006040000FFFFFDFF38040020FFFFFBFFF8060020F4060020380800202C080020CA
:2052A000FFF7FFFFC4060020B80300200A9B022B00D02BE5E37822791B02134300D025E540
:2052C000FDF780FF0023012480250A930A9B1F2B14D821000A9B0B9A99400A420AD00A99E9
:2052E0007D48294301F04EF821000A9A0B9B91408B430B930A9B01330A93E7E70222774B74
:205300001A600022764B54E6E0780138032800D9FCE4714D01F070F802101C282A000023C7
:20532000B43213602A002800C032136000F084FF280000F0AFFFE9E42C00C0342368002B81
:2053400000D1E3E4280000F0ACFF00232360DDE42B00C0331B68002B00D1D7E42179280071
:20536000C9B200F0EBFFD1E4C0352B68002B00D1CCE400235B4A0A9311790A9B994200D8A8
:20538000C4E403210A9B4B430633D35C002B08D10A9B51484B430533D15CC9B200F0A6FF61
:2053A0001AE003210A9B4B430633D35CFF22013BDBB28B4201D84C4AD25C032103240A9BF0
:2053C00048484B430533C15C0A9BC9B263430733C35C414800F070FF0A9B0133CAE73E4843
:2053E0000300C0331B68002B00D18FE42379DBB2302B25D015D8102B22D0202B00D085E4AE
:20540000E1786379C9B2DBB2A21D334800F09EFF7F23E1780B9A19407E3B8B4013430B9317
:2054200074E4402B07D0802B00D06FE4E178C9B200F074FF6AE4E178C9B200F05FFF65E414
:205440004022E1786379C9B2934200D8627900F09FFF5BE463792548002B00D04560214992
:205460004268234ECD78234B0C7992192D029A1A2C43A24203D24268B6189B1B03E0CB78CF
:205480000A791B021343194A136072B680211A4A490313680B43EDE5E0783840FDF780FEEA
:2054A0002079C0B2FDF788FE0623E078184002D0042802D1B420FFF74DFBFDF783FEFFF740
:2054C00025FC0D230321200023706570A570FFF757FBFFF71BFCC04600060020DC05002038
:2054E000B0030020FC060020787F00083008002000000008F87F0008AC030020FEE7000025
:20550000014B18687047C0463C08002013B50190FFF7F6FF0400FFF7F3FF019B001B9842DD
:20552000F9D313BD70B58901002814DA0F23C0B20340083B114A9B0803249B009B18FF224C
:205540002040A04014000A4084408240DD69A5432A43DA6111E08208094B03259200D218DE
:20556000FF232840A8401D00C02485400B408340A4001659AE433343135170BD00ED00E00D
:2055800000E100E01F2318401E3B8340014A13607047C04600E100E01F2318401E3B8340A2
:2055A000014AD3677047C04604E100E0F0B50B6887B0039300230291039ADA4000D190E051
:2055C00001229A40039C1440019400D187E0029A1021526816008E43022E0ED107251D4008
:2055E000AD000139A940DC08A4000419276A8F4302990969A9400F43276203245F00BC4080
:205600000321E4431140B9400568013E25400D430560012E10D802998568CE682540BE40F7
:20562000354301269E40012185604568B54316090E409E4035434560C56802992C408D68B0
:205640008021BD4049052C43C4600A4247D00121254C0327A5691F400D43A5610F25A469A7
:20566000BF000C400594059C20499C08A4006418BD409021A668C905AE430025884208D076
:205680001B490135884204D01A490435884200D1033DBD40019935430E00A560164CCD43C7
:2056A00027683E43D10301D43E002E4026606768019E3E43910301D43E002E406660A76826
:2056C000019E3E43D10201D43E002E40A660E668019F3743920201D42E403700E76001335F
:2056E0006AE707B0F0BDC046001002400000014000040048000800480004014000690840CA
:20570000411E8841C0B27047F8B504000120002C3ED02500FF35AB7ADBB2002B03D16B7245
:20572000200000F027FD2700032326002837AB72702200213800983600F0B0FF702200213B
:20574000300000F0ABFF00233800190001276268934205D003704770C17001331C30F7E7B6
:2057600000231900934204D03370F17001331C36F8E700200121236805349A1C9E1D5033E1
:20578000D187D087F0871880024BD387E077A972F8BDC0460084FFFF802203681202583349
:2057A000198800200A431A8070470200FF32517A03000220012909D01B6819180138C88728
:2057C00000200633D8870323CB87507270470100FF314A7A03000220012A07D000201A6862
:2057E000583213885B045B0C138048727047020010B5FF32547A0223012C0CD0013B5372C5
:20580000002904D1036880314C33198001E00530C17700235372180010BD0000F0B5050091
:2058200048B21C24002804DA7F260E407443283401E04C4398342C197F26E3702B0031400D
:20584000C00F60702170E260FF33597A0220012900D190E001215972E0782B68032819D850
:205860002178454E8900591800F0C6FD020E070A08880640802080000AE00888064008E090
:2058800008880640C02002E0088806408020C00006430E802178394E8F00DF19388830408C
:2058A0008446664636480143314389B239801F00617884460E0050372178A088002E1DD015
:2058C0003A88C900591889188022D2008918012290430880227892009A181188490605D5F8
:2058E0001188264E0E4027490E431680227892009B181988244A0A40202134E03E88C900DA
:205900008919224E591889190126B043088020783988C00040181E49591840183E2A08D9D6
:205920005109D20601D1013989B21A4A8902114304E05108324200D0013189020180227852
:2059400092009A181188490405D511880B480140114801431180227892009B1819880F4A0F
:205960000A40C02189014A406146002011438AB2FF351A806872F0BD8F89FFFF0F0F000008
:205980008080FFFFC0800000BF8FFFFF04040000060400000080FFFF80C000008FBFFFFF61
:2059A000020048B270B51C23002804DA7F240C406343283301E04B4398337F24D318214068
:2059C00019701100C00F5870FF314C7A0220012C2FD00138487215681A785C78920015488D
:2059E000AA18002C11D01488640605D51688124C3440124E344314801C78114AA4002C1945
:205A000023881A40030013430FE01488640405D51688094C34400B4E344314801C780A4AA8
:205A2000A4002C1923881340034300209BB22380487270BD8080FFFF0F0F0000C0800000E6
:205A4000BF8FFFFF80C000008FBFFFFFF0B505007F201C2401404C432C192000A830026076
:205A60002200AC32136000232E0083600F38037001380170FF36777A0220012F44D0013856
:205A80007072A43410682468A04203D9001B1060200000E013601C234B43EB181A00A232CE
:205AA00012782C68002A1DD122009833503217881A78164BD200D219E318D2183E2809D9C5
:205AC00043099BB2C00601D1013B9BB210489B02034306E043089BB2C00701D501339BB235
:205AE0009B0213801C2041436D1898352B7800209B00E4182288074B1340C02292015340B3
:205B0000054A134323807072F0BDC046060400000080FFFF8FBFFFFF808000007F231940D9
:205B2000633B5943411828310B7802689B00D3181988044A0A4030214A4003490A431A80BF
:205B40007047C046BF8FFFFF8080000030B50400FF34637A02000220012B37D0012348B2CE
:205B600063721B33002804DA7F250D406B43283301E04B4398330125D3189D707E3529408E
:205B8000C50F5D7019701268114D002908D11188104B0B4010494B402B439BB2138013E09D
:205BA000890051180A88002805DA0C4B1340102253402B4306E00A4B1A4080235B015A404F
:205BC0002B0013439BB20B800020607230BDC0468080FFFFBFBFFFFF10100000BF8FFFFFA1
:205BE0008FBFFFFF020048B270B51C23002804DA7F240C406343283301E04B4398330024A5
:205C0000D3189C707F3421401970C10F59701100FF314C7A0220012C34D00138487215688D
:205C20001A785C7892001848AA18002C13D01488640605D51688154C3440154E344314807A
:205C40001C78144BA4002C192288134030225A400300134312E01488640405D516880B4C61
:205C600034400D4E344314801C780C4AA4002C1923881A40C0239B015340034300209BB2AD
:205C80002380487270BDC0468080FFFF0F0F0000C0800000BF8FFFFF80C000008FBFFFFF40
:205CA00070B58024E40000190C0001335B108218002B08D0657826782D02601A3543855263
:205CC0000234013BF4E770BDF8B505007F201C2401404C432C192000A263E36300220123F3
:205CE0002E002930226401384370FF360170777A02209F422CD07372E36B676BBB4202D938
:205D0000DB1BE36301E01F00E2631C246143BFB26C18A16BA28D28683B00FFF7C1FF2D68D8
:205D200028342B00227850331888D200094BAA181218D21817802378074A9B00EB18198861
:205D400000200A4030214A4004490A431A807072F8BDC04602040000BF8FFFFF80800000DB
:205D6000F7B505007F201C2401404C432C19E3632300A2630126002229332264013B5E70DB
:205D800019702B00FF335F7A7D38B7423DD05E72606BE36B8446834202D91B1AE36301E0DA
:205DA0009C46E26328680026030050331A881C23594369180F0028373B78DB00C3189B18F8
:205DC000124A9B181E803B78114A9B00C3181C882240202462400F4C22431A8063466A46F3
:205DE000D380D4888A8D2300896BFFF759FF296830000B0050331A883B78FF35DB00CB18E2
:205E00009B18024A9B181C806E72FEBD02040000BF8FFFFF8080000010B58024E4000019E1
:205E20000C0001335B108218002B05D0601A805A013B20800234F7E710BD0000F0B50368FC
:205E400085B00633DB8F04001BB2002B11DB23680633DA8F520500D467E1D98FB44A20005C
:205E60000A40DA8700F0D2F900212000FFF7BFFC5BE102AB9F1D00233B80206803AA831D72
:205E8000DB8F9BB213801BB2002BE0DA0F2315881D4000D0AFE00188A64BA74E0B40202180
:205EA0004B40802133439BB203800388A34D89012B404B4033439BB20380102311880196CC
:205EC000194027D102889E4B13402200038003002832127850331B88D2008018C018994BD3
:205EE000A26BC018038820009B059B0D2364D318A36300F079F9631DDA7F002ABDD0E06B15
:205F00000028BAD18022D97F114322684C321180D877B2E703889BB23B803B881B051DD597
:205F2000030022005033983219881378DB00C3185B1885495B1821001B880D319B059B0D0F
:205F40009361FF319288FFF767FF22687F4B118820000B40138000F029F98EE73B881BB2A5
:205F6000002B00DB89E70288784B2600134003800300983650331A883378DB00C3189B1858
:205F8000714A9B181B889B059B0DB36109D03169002906D0B288FFF73FFF3369B2699B184A
:205FA00033610021200000F00BF92168F0680B0050331A88644B8A18D2183E2809D9430938
:205FC0009BB2C00601D1013B9BB261489B02034306E043089BB2C00701D501339BB29B028E
:205FE00013800B881D40C0239B015D40019B2B439DB20D8041E7AB000193C3181A8892B2F4
:206000003A803A8812B2002A4BDA19884F4A0A401A800300503319881C236B43E3181A00AA
:2060200098321278D20082185218474952181688B605B60D09D01A00A8321168002904D0DD
:206040009C331A883300FFF7E7FE1C2213006B43E3181800B0300168A83389190160196807
:20606000002901D0891919606A43A2181300AC331B68002B04D01100A43109688E4208D22F
:206080001C236B43E31898331978200000F098F807E010009832A830117802682000FFF77A
:2060A000D5FC80223B88134200D1E6E62068AB00C3181988224A0A401C211A8003006943CD
:2060C000503361181A880B0028331B78DB00C3189B181C4A9B181B889B059B0D0B6403D07A
:2060E0008A8D896BFFF7DCFD2068030050331A881C235D436519290028310B78DB00C318FE
:206100009B18104A20009B181A88AB6B9205920D2A649A18EB6BAA630978002B02D100F09F
:2061200063F8AAE6FFF7D0FDA7E605B0F0BDC046FFFBFFFFBF8FFFFF8080FFFF8FBFFFFF2E
:206140000F8FFFFF02040000060400008F0F00000080FFFF10B51C220C0604D57F24214085
:206160004A43283201E04A4398328118002088728B8010BD07B50B4B02689A4211D1802398
:20618000094A1B04D1691F201943D161D2690321134001930022019BFFF7C4F91F20FFF79A
:2061A000F1F907BD005C00400010024072B62021024A13680B43136062B67047AC030020B4
:2061C00072B601238B40802105488902C2681343044AC36013680B43136062B67047C0462D
:2061E000E0050020AC03002072B601238B401021044882681343044A836013680B4313608A
:2062000062B67047E0050020AC030020FC3010B504000121006C00F0EBF8206C00F0CAF847
:2062200072B68021034A890113680B43136062B610BDC046AC03002070B506780500002EF2
:2062400021D1A022114C52003100200000F026FA2300FC331D640E4BC035236004232C6023
:2062600063602000023BA3602361FFF74DFA4023320031002868FFF76DFF80233200190094
:206280002868FFF767FF002070BDC04698040020005C004010B5C0300068FFF77DFA0020BD
:2062A00010BDC03010B504000068FFF790FA2068FFF77BFA002010BDF8B51E007F23C03033
:2062C0000D00170004000B40CA095B009B1801339B0189B200220068FFF73CFF3B00320037
:2062E00029002068FFF79AFA0020F8BD10B5C0300068FFF755FB002010BD0000064B10B528
:206300001B689B0601D54B0603D0C0300068FFF71DFC002010BDC046AC030020064B10B520
:206320001B689B0601D54B0603D0C0300068FFF759FC002010BDC046AC03002010B5C03025
:206340000068FFF754FA002010BD0000F8B57F2430270A4E0C403668A500761935883D404D
:20636000302DFBD0064D2D68AD0601D5002C03D0C0300068FFF7F4FC0020F8BD98040020B6
:20638000AC03002010B5C0300068FFF7C7FB10BD1300074A10B51268920601D54A0604D057
:2063A000C03000220068FFF751FB002010BDC046AC030020002270B504004025110040233B
:2063C000FFF77AFF2B000022256680212000FFF773FF230001229C3325621A7018331B6859
:2063E000002B03D021795B6820009847002070BD017400207047000002B4714649084900A3
:20640000095C49008E4402BC7047C04603B47146490840004900095A49008E4403BC704745
:20642000002243088B4274D303098B425FD3030A8B4244D3030B8B4228D3030C8B420DD34D
:20644000FF22090212BA030C8B4202D31212090265D0030B8B4219D300E0090AC30B8B42DA
:2064600001D3CB03C01A5241830B8B4201D38B03C01A5241430B8B4201D34B03C01A524139
:20648000030B8B4201D30B03C01A5241C30A8B4201D3CB02C01A5241830A8B4201D38B026F
:2064A000C01A5241430A8B4201D34B02C01A5241030A8B4201D30B02C01A5241CDD2C30934
:2064C0008B4201D3CB01C01A524183098B4201D38B01C01A524143098B4201D34B01C01AA9
:2064E000524103098B4201D30B01C01A5241C3088B4201D3CB00C01A524183088B4201D313
:206500008B00C01A524143088B4201D34B00C01A5241411A00D20146524110467047FFE7E5
:2065200001B5002000F006F802BDC0460029F7D076E770477047C04630B5032A1ED9030005
:206540000B439B0711D004780D784B1C8A18AC4206D016E00133591E04780D78AC4210D12B
:2065600001309342F6D1002030BD03680C68A342E9D1043A04300431032AF6D8002AE2D144
:20658000F1E7601BF0E7C04670B50F2A32D90C0004430B00A40731D115000400103D2D09BB
:2065A00001352D0149191E6826605E6866609E68A660DE681033E66010349942F3D10F238D
:2065C00045191340032B1BD91C1F0023A4080134A400CE58EE5004339C42FAD103232D1955
:2065E00009191A4005D00023CC5CEC5401339A42FAD170BD0500002AF5D1FAE70500F2E703
:206600001A00F8E770B588420BD98B18984208D2991A531E002A03D0CA5CC254013BFBD2F1
:2066200070BD0F2A09D80500002AF9D00023CC5CEC5401339A42FAD1F2E70C0004430B007E
:20664000A40726D115000400103D2D0901352D0149191E6826605E6866609E68A660DE684C
:206660001033E66010349942F3D10F2445191440032C10D90023043CA4080134A400CE58A3
:20668000EE5004339C42FAD103232D1909191A40CAE70500CAE72200C6E7C04670B5830709
:2066A0003FD0541E002A3BD0CEB20300032503E0621E002C34D0140001335A1E16702B4233
:2066C000F6D1032C24D9FF250D402A0215432A0415430F2C11D92600103E36090136360106
:2066E0001A009B19156055609560D56010329342F8D10F221440032C0AD9261FB6080136C7
:20670000B6001A009B1920C29342FCD103221440002C05D0C9B21C19197001339C42FBD1E0
:2067200070BD14000300CCE757000000030000000900000001120D0020007F009471000833
:20674000C4680008030500000305050004060A00070B100006091B00090E2400080C32000F
:2067600002033E00030541000305460006094B000609540003055D00040662000305680041
:2067800004066D000609730006097C000609850006098E00080C97000609A3000609AC002C
:2067A0000609B5000609BE000609C7000305D0000305D5000609DA000609E3000609EC00E7
:2067C0000508F5000A0FFD00070B0C01070B1701070B2201080C2D01060939010609420146
:2067E000080C4B01080C57010305630104066801070B6E01060979010A0F8201080C9101A2
:20680000090E9D01070BAB01090EB601070BC4010609CF01070BD801080CE301070BEF019C
:206820000A0FFA01060909020609120206091B020406240204062A020406300206093602F2
:2068400005083F020609470206095002070B590205086402070B6C020609770205088002BA
:2068600006098802070B910203059C020406A1020609A7020305B0020A0FB502070BC4026D
:20688000070BCF02070BDA02070BE5020406F0020508F6020406FE02070B040306090F03E9
:2068A000090E18030609260306092F0305083803040640030609460304064F03060955037D
:2068C000070B5E030000000000000000009024490224000080244912000000000000000023
:2068E0000000004002092288F88F0412FF1141040924000000000000000020E0A120410280
:20690000051C70204192C2030200000000000080414804892009248194614A2009244124D7
:2069200088846000000000000000000000C0011188400414608044421294400CC3270000F7
:20694000000000000090240000000000402422222222224400204244444444442200102029
:2069600040F08702051100000000000000000000000000000000800001823F0810200000CE
:2069800000000000000000000000000024050000000000000E0000000000000000000000C0
:2069A000600600000022840821440811000000000070101124489020418204092282030021
:2069C0000000000000002060A0000102040810204080000100000000000000780801020410
:2069E00008101010101010E00F0000000000000078080104040C0F2080000102E203000014
:206A000000000000000004304001094820821084F01F200001080000000000000000F8103A
:206A2000204040800F6080000112C20300000000000000E030202040801E438204092284C9
:206A40000700000000000000FC010202040808101020404080000000000000000070101149
:206A60002488080E2282040912C40700000000000000780811244890305E80000101C30165
:206A80000000000000000000660000600600000000660000202200000000000004068301F4
:206AA0000C6000010000000000000000000000000000C01F0000FE0000000000000000008C
:206AC000000000000010C0000630180C0400000000000000000000000F0804024110040214
:206AE000804000000000000000F880411020C49388242149481292C424EE080004000200B0
:206B00001F00000000000000C000030C4820810421FC08249040010200000000000000F08E
:206B20004108410411C2072104114410217C0000000000000000C0870001020820800002D2
:206B400008400002F00100000000000000E00321084220021188400422104108C10700006A
:206B6000000000000000F811204080003F0204081020C00F00000000000000FC04040404D4
:206B800004FC0404040404000000000000003F08400002200002207C022440048440F00379
:206BA00000000000000000004020044220044220FC43200442200442200402000000000078
:206BC0000000404444444444040000000402814020100804028140200C00000008122242AD
:206BE0008202030A248810214410000000000000000404040404040404040404FC000000AB
:206C0000000000000142C030300C0C8542A15028240949428C102304080000000000000096
:206C200000000040200CC22014422124422444422804433004020000000000000000000FCB
:206C4000084120022440022440022440048210F0000000000000000000F8102244881021EC
:206C60003E04081020400000000000000000000F084120022440022440022440048210F02A
:206C8000000800013000000000F0410841041144081F4410410841040100000000000000DE
:206CA000F80812204000073080000102E407000000000000803F028140201008040281007C
:206CC00000000000004020044220044220044220044220048210F000000000000000000036
:206CE00002061424481011224450A0800001000000000000004030280C0943229148449253
:206D00009024140A8582616018080400000000000000000000040922820405041428881023
:206D200011141000000000000000814242242418181010101010000000000000FC01020250
:206D40000404040808081010E00F000000000000C00B21841042082184F000002008210850
:206D60002104210401000000E021841042082184107A00000020A04041848820410000000C
:206D8000000000000000000000000000000000000000000000FC010000082080000000004E
:206DA0000000000000000000000000000000000000003C4040407C4242625C000000000019
:206DC00002082080007A1822904002092490217A00000000000000000000007804020202A9
:206DE000020204780000000000000104104078112690400209241061780100000000000026
:206E0000000000008083882041FE04082084070000000000003841101F411004411004007F
:206E200000000000000000FC224242223C04027C4281433E0002040810A0C388204182049C
:206E4000091224080000000000000002202222220200000010000821841042082107000220
:206E60000202024222120A0A162242820000000000444444444444040000000000000000EA
:206E8000003A87312208094282902024080942821000000000000000000000000000A0C3ED
:206EA0008820418204091224080000000000000000000080838820418204092282030000FA
:206EC0000000000000000000007A1822904002092490217A0820800002000000000000002A
:206EE000781126904002092410617801041040000100000000BA2108822008020000000016
:206F0000000000C013080C181008E401000000000000F184104208C10100000000000000E4
:206F2000204890204182040922C60B000000000000000000100C8A44220A85820000000059
:206F4000000000000000006128466224499244290C831008010000000000000000000000EC
:206F60004242241818182442420000000000000000100C8A44220A85824010080300000001
:206F800000E0034120080241E00300000000004610044110034110044160000010204080EB
:206FA0000001020408102040800001020408100000804120088220308220084218000000F4
:206FC00000000000008003780000000000000000000000000000C00F218410420821841033
:206FE000420821FC0000000000000000030500000305050006090A00070B130006091E00AA
:207000000A0F2700090E3600030544000406490004064F000609550006095E0003056700AB
:2070200004066C000305720005087700080C7F0006098B00070B9400070B9F00080CAA009A
:207040000609B600080CBF00070BCB00080CD600080CE2000305EE000305F3000508F800E5
:207060000609000105080901060911010A0F1A01080C2901070B3501070B4001080C4B015B
:207080000609570106096001080C6901080C75010406810105088701080C8F0106099B01A1
:2070A0000B11A401090EB501090EC301070BD101090EDC01080CEA010609F6010609FF017B
:2070C000080C0802060914020B111D02080C2E02070B3A02070B4502050850020508580281
:2070E00005086002070B680206097302070B7C02070B8702070B920206099D02070BA602E8
:20710000070BB1020609BC02070BC502070BD0020406DB020508E102070BE9020406F4024C
:207120000A0FFA02070B0903070B1403070B1F03070B2A030508350306093D030508460396
:20714000070B4E03070B59030A0F6403070B7303070B7E03060989030508920306099A03DA
:207160000508A3030609AB030609B4030A000000010C090020007F0044670008D176000818
:2071800008000000010C090020007F00EC6F0008147300080409000003070900060E1000FC
:2071A0000A171E00091535000D1E4A000B19680003078100040988000409910009159A00C6
:2071C0000915AF000307C400050CCB000409D700050CE0000915EC00091501010915160104
:2071E00009152B010B1940010915590109156E0109158301091598010915AD010409C201E6
:207200000409CB010915D4010915E9010915FE01071013020E2023020A1743020A175A021B
:207220000A1771020B1988020915A1020812B6020C1BC8020C1BE3020409FE02071007034E
:207240000915170308122C030E203E030C1B5E030C1B7903091594030C1BA9030A17C403A3
:207260000915DB030710F0030C1B000409151B040E203004091550040812650409157704B0
:20728000050C8C04050C9804050CA4040915B0040710C5040915D5040812EA040A17FC0415
:2072A000081213050A17250509153C05060E510508125F050915710504098605050C8F0539
:2072C00008129B050409AD050E20B6050915D6050915EB050A1700060A171706060E2E0698
:2072E00007103C06050C4C060915580607106D060C1B7D06081298060710AA060710BA06CC
:20730000060ECA060915D806060EED060915FB060A1710070000000000B06DC30600802D9C
:20732000490000000000000012C94FF94B241200000088B72C0E87A61F02000038B1C60AE0
:20734000FBF98D35D6C8010000000078D8B0C1C1DB3D7BBE01000000B00400000040663377
:207360003366042066CCCC660200D3FE9E070000000000C0303FC3000000000000C01A00A8
:207380000000F00F00000000C006000023C68C11030000003C6666666666663C00000000C3
:2073A000C679188661180000008E0D06C370183E000000000F0CC681C1601E00000000307C
:2073C000383834347E30300000008067181E86611E000000380C043E6666663C00000000E1
:2073E0001F0C06C360300C000000003C66663C6666663C000000003C6666667C60301C00B5
:207400000000006CC00600006CC01A0000606686611800000000003FF003000000000CC32E
:207420003033030000C083618E011806000000E0C398DD5B2FBDF67E06E007000000183C81
:207440003C7E667EE7C3000000009FCDE6B1D96C3E000000009EC16030180C3C000000000F
:207460003E6666666666663E0000008067189E61181E0000806F189E6118060000007C0652
:2074800006766666667C000000006666667E666666660000006066666606008031C61863F0
:2074A0008CB10300E666361E3E3666E60000008061188661183E000000709CE3BCE73DEF38
:2074C00059CD6E760300000000009C39F3E6CD9E3D73E60000000000F8183366CC9831634F
:2074E0007C00000000009FCD66F3190C0600000000F8183366CC9831637CC0000300001E22
:207500003636361E363666000000006F180E87E71E0000C0CF300CC3300C000000666666BC
:20752000666666663C000000C03CCFB3E7790C00000098B3DDEC6635AB71873BD800000028
:20754000000000C3663C3C3C3C66C300000080B1CDC6C1603018000000803F0C8761380CC5
:207560007F000000C01B638C31C678006008631843180000E031C618638C3D000006C3230E
:207580009901000000000000000000000000F0030C0C0000000000000000000000C003F390
:2075A000CD663E0000000083C167B3DB6D3E0000000000F0C671183C000000188C67BBDD58
:2075C0006C3C00000000008067FE1F0C3C00000000677C8661180600000000C06FB3790C68
:2075E000BEF1D8070083C167B3D96C360000006060666606008001C618638C31030083C1CC
:20760000E6F3786C760000006066666606000000008076B6D9669B6DB601000000000040B5
:2076200067B3D96C3600000000008063BBDF6D1C0000000000C067B3DB6D3E83C10000000B
:20764000C067BBDD6C3E180C060000ED8D3106000000007886C7C31E000000986F8C311C60
:2076600000000000C066B3D96C2E0000000000606CB3D9381C000000000000C0CCB6F9E7F0
:207680001F33CC000000000000E06EE3706C770000000000606CB3D1381C06C3000000FCDF
:2076A00018C3183F00008033C6CE618C710000C3300CC3300CC330E018633837C61C000056
:2076C00000006F0F000000008027499224491E0000000000000090240902006006000000FA
:2076E000000010C94FA1FC240200000000E0290A83611E0000008CA850A1CD162A54C40040
:20770000000000001C12120C4A52225E000000280000909424920090449292000041FC8C3E
:207720000400000000000000C88F00000000000000520000000006000000000002008044D0
:20774000242201000023499224490C000000A3200882200800008003411042081E0000803A
:2077600003410C04410E00000020302824247E20200000008027081E04410E000000270899
:207780009E24490C00008007410842100400000023498C24490C00000023499207410E00E7
:2077A00000000400020000040052000000218681400000000000001EE001000000002010D6
:2077C000184608000000C04188080104000000E043905C4A29A5947E02F0010000000485F8
:2077E0004211F94441000000009F48E41189443E000000009E412010080C3C000000003E34
:207800004242424242423E0000008027089E20081E0000802F08822F08020000007C020219
:20782000026242427C000000004242427E4242424200000090244902004044444444030046
:20784000914461504844420000008020088220083E000000186698614A2925934C32010023
:2078600000000042464A4A5252624200000000F8081224489020417C00000000008F4824BE
:20788000F208040200000000F8081224489020417C40000100008F4824F248442200000021
:2078A0008027080606411E0000001F02814020100800000000424242424242423C0000008A
:2078C00080A04824A250280800000000C428934C4A29A5142184000000004028310C23494D
:2078E0002100004028490C82200800008007210821081E0000E0222222220E1022424408D3
:207900000070444444440700C3485208000000000000000000007C000402000000000000F9
:20792000000000789027491E00000081C0231289441E00000000002E84101C0000001088DA
:20794000271289443C0000000000709227081C000080892784100200000000F892E4085EFE
:20796000187A0081C0231289442200000010244902004040444444748020488AA148120064
:207980000090244902000000008077228924924822010000000000C0231289442200000041
:2079A000000080231289441C0000000000C0231289441E814000000080271289443C1008AE
:2079C0000400E0222202000000270C820E000000F222220E00000040241289443E000000F5
:2079E0000000849224310C000000000088A84A952A22440000000000004812C348120000FA
:207A00000000849224310C410C00808F08111F0000C0442442440C008220088220088220AB
:207A2000302242242203000000060600000000009F48241289443E0000000000807100083C
:207A4000306700086C71000800000000FFFFFF0048124208C00030C00030000000003000F1
:207A60000FC0000000C0C03030C0003000000000FFFFFF000000000033C031803000300066
:207A80003F003F003000300030003000FFFFFFFF300C300C318C33CC1FFE013E000780E1B4
:207AA00021FEC1F3F03CF8477818000EC007F8870FFF0000FFFFFF0000000000E001FEC1F9
:207AC000E13870CEDC337F801FE007B8016680F13FF8077800000000FFFFFFFF00000000F9
:207AE000000000000000000000000000000000000600000008000000060000000100000071
:207B0000E47D0008A87D000807000000070000000700000001000000247E0008857D000805
:207B2000080000000E0000000E00000001000000B47D0008F07D0008090000000400000065
:207B40000700000001000000E47E0008507A00080A000000040000000700000001000000CB
:207B6000307D0008D87E00080B000000070000000400000001000000BC7D0008577E0008BD
:207B80000C000000070000000400000001000000087F0008AE7D00080D00000010000000EE
:207BA0001000000001000000C47D0008787A00080E0000000E0000000E0000000100000046
:207BC000B47A0008BF7E00080F0000000E0000000E00000001000000707A0008747E000812
:207BE00010000000070000000700000001000000107F0008507E00081100000006000000E2
:207C00000100000001000000487A0008B17A000812000000100000000A0000000100000038
:207C2000647E0008947D000813000000100000000A00000001000000147E0008517D0008A3
:207C4000140000000E0000000E00000001000000DC7D0008547A0008150000001000000097
:207C600010000000010000001C7E0008657D0008160000000E0000000E0000000100000034
:207C80008C7D0008187F0008170000000E0000000E000000010000005C7E0008A67E0008F2
:207CA000180000000E0000000E000000010000000C7E0008387D0008190000000E00000019
:207CC0000E000000010000006C7E0008EC7E00081A0000000E0000000E00000001000000FA
:207CE000487E00088D7E00081B0000000E0000000E00000001000000D47D0008987A0008F8
:207D00001C0000000E0000000E00000001000000CC7D00082C7E00081D0000000E000000FC
:207D20000E00000001000000DC7E0008BC7A000800000000FFFFFF001FFE013E10078CF99F
:207D400027FE0132C004F847FE19038EC007F8870FF81F042032407980FD80FD8079803200
:207D6000400420F81F0000F00FFC3F7C3E5E7A0E701E78866186611E780E705E7A7C3EFC38
:207D80003FF00F000041110541110501FFFFFF0000000000F81F0420024C019E01BF01BF51
:207DA000019E024C0420F81F804020110A04411105010000FFFFFF00000000000000000047
:207DC000FFFFFF00FFFFFF0000000000FFFFFF0000000000FFFFFF000000000000000000AF
:207DE000FFFFFF0000000000FFFFFF00190000001FFE013E0007800124808370700EF8413E
:207E00003C18060EC007F8870F000000FFFFFF000000000000000000FFFFFF0000000000AB
:207E2000FFFFFF0000000000FFFFFF001FFE013E000783E1213000008007F043FC183F0E15
:207E4000C007F8870F000000FFFFFF00000000000804E28F402000088A280800FFFFFF0034
:207E60000000000000000000FFFFFF00FFFFFF00000000001FFE013E00C78FF927868161CE
:207E800060181846FE193F0EC007F8870F1FFE013E0C0783E12178003F8007104278181E21
:207EA0000EC307F8870F1FFE013E0C0783C120FC001E00030040FC183F0EC007F8870F1F57
:207EC000FE013E0047883927FC001E8007F043CE19210EC007F8870F21842401000000002D
:207EE000FFFFFF0000000000FFFFFF001FFE013E0AE7873123CC003FC01C3046CC993F8ED1
:207F0000C207F8870F00000000000000FFFFFF0000000000FFFFFF001FFE013E000783C169
:207F20002030000C0003004030180C0EC007F8870F002C010100010002000400080010009E
:207F4000200040000C001400010001000100740100018000740174012E02E8025C04D0056F
:207F60004407000000010002000300040006000800000000312E3100000302010C5FFC7C25
:207F800026063402051A7BFA1EC3DAAC1A7A7BA88EBD3B3CCD49743D11A29A1C1EF90913A8
:207FA0008C9AE8CF2D308B1702C234605020601F3045022100A4BD5F9CB9223B34359D7519
:207FC000CED4B08EA205C61036EF08CAA2899C2D51B31CAA510220472E86AA596C17D25772
:1F7FE00067EB87DFD4032229D6F54222A81B1AF65203C99232512846464646464646461B
:04000005080030C1FE
:00000001FF
